S00B00006173702E73726563D5
S3150800000098990020010200082525030825250308DC
S31508000010252503082525030825250308252503087E
S315080000202525030825250308252503089B260308F7
S31508000030252503082525030825250308A3250308E0
S31508000040A3250308A3250308A3250308A325030856
S31508000050A3250308A3250308A3250308A325030846
S31508000060A3250308A3250308A3250308A325030836
S31508000070A3250308A3250308A3250308A325030826
S31508000080A3250308A3250308A3250308A325030816
S31508000090A3250308A3250308A3250308A325030806
S315080000A0A3250308A3250308A3250308A3250308F6
S315080000B0A3250308A3250308A3250308A3250308E6
S315080000C0A3250308A3250308A3250308A3250308D6
S315080000D0A3250308A3250308A3250308A3250308C6
S315080000E0A3250308A3250308A3250308A3250308B6
S315080000F0A3250308A3250308A3250308A3250308A6
S31508000100A3250308A3250308A3250308A325030895
S31508000110A3250308A3250308A3250308A325030885
S31508000120A3250308A3250308A3250308A325030875
S31508000130A3250308A3250308A3250308A325030865
S31508000140A3250308A3250308A3250308A325030855
S31508000150A3250308A3250308A3250308A325030845
S31508000160A3250308A3250308A3250308A325030835
S31508000170A3250308A3250308A3250308A325030825
S31508000180A3250308A3250308A3250308A325030815
S31508000190A3250308A3250308A3250308A325030805
S315080001A0A3250308A3250308A3250308A3250308F5
S315080001B0A3250308A3250308A3250308A3250308E5
S315080001C0A3250308A3250308A3250308A3250308D5
S315080001D0A3250308A3250308A3250308A3250308C5
S315080001E0A3250308A3250308A3250308A3250308B5
S315080001F0A3250308A325030800000000000000004B
S3150800020071B64FF0000080F31488BFF36F8F18485B
S31508000210016881F3088817484FF47001026842EABA
S31508000220010202604FF0404013490860134800B1CC
S3150800023080474FF000001249124A914204D20860E2
S3150800024001F104019142FAD30F49104A914208D2AA
S315080002500F4B0868186001F1040103F10403914289
S31508000260F7D30C4800B1804732F044FCFEE70000A3
S3150800027020E9040888ED00E034EF00E0E13C0008DE
S31508000280C01500203088012010BC0508B8C1050833
S31508000290000000200000000030B58BB001A811F066
S315080002A027FE0698059BA0F10A0402995A050398A9
S315080002B04901049D02EB4463019A01EBC021002A1F
S315080002C003EB0543B8BF013201EB620018440BB0DB
S315080002D030BD00BFF0B5012389B00E46164CF9B102
S315080002E0817822688B4013432360002322681A41D1
S315080002F0D2071CD40133042BF8D1104A27680125EC
S315080003000F4B6946039005200293059206960497BB
S31508000310009510F0A5F802236560A36009B0F0BD4A
S31508000320817822688B4022EA03032360DDE73033B5
S31508000330024A1370E2E700BFC01500200000002043
S31508000340F48A03088B688BB1052070B588B05E689F
S3150800035091F88E520124064B694603960495059238
S315080003600094029310F07CF808B070BD704700BF87
S31508000370188B0308F0B50446806889B020B10128B7
S3150800038037D0002009B0F0BD1E4F4AF6444202207D
S3150800039025687968C9B20DF0C9FB06467868012256
S315080003A0194B69460390052004960594009202931A
S315080003B010F056F816BBAB6A022B8CBF4FF47020B0
S315080003C04FF4A0200DF0F6FCAF6A6E6901222C6B83
S315080003D069460E4B052000920293039704960594EE
S315080003E010F03EF8296B68690DF00CFC002009B086
S315080003F0F0BD0DF07DFC002009B0F0BD4FF0FF30D8
S31508000400C0E700BF00000020308B0308608B03089C
S315080004102DE9F04FDFF8F8B185B0824602910CF06D
S3150800042037FADBF80C3013F4006602D005B0BDE8E5
S31508000430F08F04464FF0FF300CF0D6FAA4080CF003
S3150800044021FA4FF6FE731B1B184485B20CF020FAEE
S315080004500121831E2A4608469BB20CF07BFF4FF00B
S315080004607F400CF0C1FA4FF0FF300CF0D1FA5E482D
S315080004700CF0E2FADAF80C30002B00F0AC800BF145
S3150800048010086FF003030AF1200508271B1BC14655
S3150800049003930CF0FDF91E38B84268D9029BB342A3
S315080004A000F090804FF07F400CF09EFA4FF0FF303E
S315080004B00CF0AEFA4FF4827220214C48013635F022
S315080004C089F80CF0DFF9039B4FF0000E324618440A
S315080004D0474B4849A3FB00342B46C4EB000C434862
S315080004E004EB5C04A4080BEB040C8CF810E006F093
S315080004F0BDF8284635F024F9C31C9C420BDD831C45
S31508000500611E20204B44494413F8012F1F2A98BF27
S3150800051018708B42F8D135F8083CA4F116005A0A2F
S31508000520132A3DD9143A03F01F014044C3F3431379
S315080005300D3C0091304906F099F815F8023CDA06A8
S3150800054038D41B072ED52D4B08EB040203CB48F8ED
S31508000550040051600323B9B2244A05200CF05EFB5F
S31508000560DAF80C3005F586751137B34291D84FF095
S315080005707F400CF039FA4FF0FF300CF049FADAF800
S315080005800430DAF808201E49184806F06FF80323E5
S31508000590B9B2164A052005B0BDE8F04F0CF03EBBCF
S315080005A05032C0E708EB040055F80C2C154906F044
S315080005B05DF8CFE7144B08EB040203CB48F80400B8
S315080005C05160C7E74FF0FF300CF00EFA4FF07F404E
S315080005D00CF01EFA6EE703230C4A0821052005B025
S315080005E0BDE8F04F0CF01ABBA4000020D01500207F
S315080005F025499224A48B0308B08B0308C88B0308EB
S31508000600D08B03084CFD0408C08B0308988B03089D
S31508000610C01500202DE9F043CD4A85B0CD4C516870
S3150800062001AB1068926807C30CF032F906460CF065
S315080006302FF9E3681D0502D4D4F8143113B905B0AF
S31508000640BDE8F08305464FF0FF300CF0CDF9B6084B
S315080006500CF018F94FF6FE72ED08921BADB2104475
S3150800066086B20CF015F90121831E324608469BB264
S315080006700CF070FEB8480CF0DFF9B8480CF0B4F985
S315080006804FF0FF300CF0C4F9E36813F4802FD4F868
S3150800069018311B6800F0028113F0100F4FF00103A8
S315080006A040F00581AE4AC5F1000932211FFA89F9E1
S315080006B048460CF0B3FA4FF0FF300CF095F90321D9
S315080006C001A80CF0E7FE4FF07F400CF08DF950239F
S315080006D019228C2164200CF03DFE8C21502319220E
S315080006E008460CF037FE9D480CF07EF950238C2105
S315080006F04FF496701A469B4F0CF02CFE97480CF058
S3150800070073F9994B99495A68994805F0AFFF01233F
S31508000710974A4E2148460CF081FA90480CF064F945
S315080007200CF0B0F84000A7FB00360CF0B1F8A0F1C9
S3150800073064012822C5EB960689B2B6B230460CF09B
S315080007404DFE0CF09FF800EB4000A7FB00360CF0BE
S315080007509FF8A0F164012822C5EB960689B2B6B2C5
S3150800076030460CF03BFE4FF0FF300CF03DF90CF034
S3150800077089F84000A7FB00360CF08AF8A0F164015E
S315080007802622C5EB960689B2B6B230460CF026FE8E
S315080007900CF078F800EB4000A7FB00360CF078F870
S315080007A0A0F164012622C5EB960689B2B6B2304698
S315080007B04FF6E2760CF012FE68480CF015F9761B37
S315080007C00CF060F84000B6B2A7FB00380CF060F8F1
S315080007D0A0F164013C2206EB980889B21FFA88F852
S315080007E040460CF085FA0CF04DF800EB4000A7FBEC
S315080007F0003006EB90060CF04BF8A0F16401B6B297
S315080008003C2289B230460CF073FA0CF03BF800EB48
S315080008104000A7FB00370CF03BF8A0F182013C2210
S31508000820C5EB970589B2ADB228460CF087FA0CF0ED
S315080008302FF805460CF00AF96FF08B01C6880123DC
S315080008404C4A4846891B294489B20CF0E7F9242208
S315080008502021474834F0BEFEE3680022DB0084F816
S31508000860342005D5444A4549A2F5867005F0FEFEB2
S315080008700CF00EF805460CF0E9F86FF0A901C688E9
S31508000880012348463A4A891B294489B20CF0C6F91D
S315080008900023C4F8143105B0BDE8F083990724D5C0
S315080008A013F0100F4FF001031DD0354A00E0354A0A
S315080008B0C5F1000932211FFA89F948460CF0AEF94C
S315080008C04FF0FF300CF090F850238C2164201A4624
S315080008D00CF040FD4FF0FF200CF086F801A803212C
S315080008E00CF0D8FDFFE6284ADDE6C5F1000901232C
S315080008F0264A32211FFA89F948460CF08FF94FF03B
S31508000900FF300CF071F850238C2164201A460CF045
S3150800091021FDE368DA000AD54FF0FF200CF064F8F1
S3150800092001A803210CF0B6FD4FF07F40DCE64FF03E
S315080009307F400CF059F8502319228C2164200CF0C2
S3150800094009FD8C215023192208460CF003FDEBE71C
S3150800095030590308C015002094000020FF0000FF4E
S31508000960088C0308CDCCCCCC00000020588C03089A
S31508000970D0150020688C0308DC160020708C03084C
S31508000980308C0308F48B0308448C03081C8C03087A
S315080009908368F0B5044689B023B1012B25D0002021
S315080009A009B0F0BD1C4E0320626A7168C9B20DF029
S315080009B0BDF8776805460122666A6946174B052021
S315080009C00397059506940496009202930FF048FD46
S315080009D0F5B9A36A042B0CBF4FF470204FF4A0207E
S315080009E00DF0E8F9284609B0F0BD046869460C4AD6
S315080009F005206669256B00930292039604950FF00D
S31508000A002FFD216B60690DF0FDF8002009B0F0BDDF
S31508000A104FF0FF30C4E700BF000000207C8C0308BD
S31508000A20B08C0308354B20392DE9F04FDD8889B0A5
S31508000A309C882F4604952646E51D03941C683B466C
S31508000A4003FB01F3E91035460191019EC5EBC6018A
S31508000A5006FB03F3C9B20591002F3DD09146023338
S31508000A600022322704EB030B4FF0010A02926A1E9A
S31508000A7007900692019B012B31D0022B32D11BF82D
S31508000A80026C1BF8013C43EA0626039BD3B1069B7E
S31508000A90059A079C9D18039BC3EB05080AFA05F3FC
S31508000AA04846013D334208BF4FF0FF300BF09CFF2C
S31508000AB00623204639461A4606340CF04BFCA84550
S31508000AC0A4B2EBD1029B0637019A0133BFB2934415
S31508000AD0049A02939342CDD109B0BDE8F08F1BF872
S31508000AE0026CD2E71BF8013C1BF8026C1B029BF850
S31508000AF0002043EA064343EA0206C6E794000020BC
S31508000B00F0B40024451E234606E02E2A08BF1C46DC
S31508000B100133B3F5807F03D015F8012F002AF4D1ED
S31508000B2004B3621CFF2A1ADC835CF3B10D78F5B1B5
S31508000B308618C4F1FF00002407E0844210D016F896
S31508000B40013F7BB111F8015F65B1A3F16102A3F121
S31508000B5020070134192A98BFFBB2AB42EDD000201A
S31508000B60F0BC70472046F0BC70471846F8E72846A0
S31508000B70F6E700BF2DE9F04F8FB0564F81460024A7
S31508000B800EAB8DF8084043F8347D184609F006FB8D
S31508000B90C9F80C40C9F80000C9F81040C9F8044063
S31508000BA0C9F8084009F01EFB002800F08480038875
S31508000BB0064603F4C073B3F5807F7CD1836A002BA5
S31508000BC079D01B68002B76D038469847054600280A
S31508000BD076D03B78002B46D0B8463F4F09E0E377FE
S31508000BE0D9F810300133C9F810300AF10103C9F8F1
S31508000BF00C30B36A4FF48674384928469B68984780
S31508000C00224600283FD097F848313448002B3AD07E
S31508000C10D9F80C3004FB0391FF2B01F1140132D8EB
S31508000C2001F006FDD9F80CA001232D4904FB0AF4AE
S31508000C3009EB040B5C460BF1200BE3775846FFF7EC
S31508000C405FFF032327490028C9D15846FFF758FFF5
S31508000C500523254928B95846FFF752FF09230028D6
S31508000C60C3D0E377C1E7D9F800203A202F218DF8C1
S31508000C700B3030328DF809008DF80A100DF108088E
S31508000C808DF80820A9E7B36A28465B689847B36ACF
S31508000C905B6A63B1404606A9984740B9079A099B1B
S31508000CA0C9F80420C9F808300FB0BDE8F08F002055
S31508000CB00FB0BDE8F08F4FF0FF300FB0BDE8F08FF2
S31508000CC001220A4B06A90320069208930FF0C8FBD7
S31508000CD02846E9E700000020C0150020FC16002081
S31508000CE0E48C0308E88C0308EC8C0308F08C0308F2
S31508000CF02DE9F04F0121C3B004467F200FF062FCB6
S31508000D000028C1F25E822246AB49052002F0D4FDD6
S31508000D1001200FF0E3FC041EC1F2E3814FF4A26147
S31508000D2001200FF0CFFE0028C1F235820124A34B23
S31508000D302EA9052030932E940FF092FB0CF0F4FDAB
S31508000D404FF0404100209E4F0BF0C0FD00200BF0F5
S31508000D50F7FD9C480BF070FE4FF07F400BF0C4FE89
S31508000D604FF0FF300BF040FEDFF890B20BF08AFD33
S31508000D7005460BF08DFDA0F15003A5F17802282158
S31508000D809BB23C2092B2904E0CF0E4FA8F480BF0DE
S31508000D902BFE4FF0FF300BF03BFE8A480BF04CFE63
S31508000DA00BF076FD20FA04F12346894A3C390020E7
S31508000DB089B20BF033FF87480BF03EFE4FF07F40B9
S31508000DC00BF012FE0BF064FD20FA04F12346824A6A
S31508000DD01439002089B20BF021FF0BF059FD20FAD7
S31508000DE004F123467D4A0439002089B20BF016FF28
S31508000DF00BF048FD05460BF04BFD20FA04F1E540E3
S31508000E00774A143105F130000CF018FA754B2EA903
S31508000E10052030932E940FF023FB002009F0E2F909
S31508000E20714B724A07615A600BF02CFD0D900BF05E
S31508000E302FFD0E906E4818F025FD05466D48CBF837
S31508000E40485218F01FFD6C4A03462EA90520CBF818
S31508000E504C323293309231952E940FF001FB0BF001
S31508000E6011FD05460BF014FD2EA93290052031958B
S31508000E702E9430960FF0F4FA0BF004FD05460BF0AD
S31508000E8007FD81B2A8B20CF069FD0346002841F0BF
S31508000E901E815A4C04F5147011F02AF8DBF86432F6
S31508000EA01E2B01F082810124002504230B2222A98E
S31508000EB00220239324922C952995289525952B95E0
S31508000EC02294269427942D9413F0EAF88046AC20B1
S31508000ED018F0D8FC2A464A490646C0F88C800AF01B
S31508000EE0CFF9204609F07EF903463046434D9E6108
S31508000EF01F610AF037FA434B2EA93190052030932B
S31508000F002E940FF0ADFA4FF4FA6032F049FC204601
S31508000F1001F0CEFFCBF81801072031F0EFFFDBF820
S31508000F204802FFF727FE00B9AC604FF07F400BF090
S31508000F30DBFDDBF84822314BD268002A40F0FC87FB
S31508000F4040F21F12DA60DFF8B4A0DBF804302B4A4F
S31508000F50B3F5827F00F3BE82DAF80830022B00F080
S31508000F600D86294B0025294E18786FF06303CBF8B8
S31508000F7004501C464FF0FF333038029309F032F91B
S31508000F80DBF84832059004930BF082FCC0F38F031C
S31508000F9001220695194618460393A6FB0113014636
S31508000FA09040CBF80820D340641A41180990934022
S31508000FB00B940A9108935AE0488D0308DC8D0308C0
S31508000FC0D502000894000020948E0308FF0000FF55
S31508000FD0F08D0308A4000020088E0308348E030849
S31508000FE03C590308608E0308847F01209902000893
S31508000FF0140C010036002000708E0308C01500206E
S3150800100045030008C08E030800000020ABAAAAAA60
S31508001010DBF80C3013F4807477D1DAF80C309F05BE
S3150800102004D5DAF80830012B00F06083DBF80C30C1
S315080010305E0500F1D281CF480CF0DEFC9BF87452B5
S31508001040002D40F08D81DAF818211368DE0505D5E4
S3150800105023F4807301211360CBF81411C820C64C01
S3150800106032F09EFBDBF80430002B40F0C081DBF841
S315080010700C301C05CCD4C14810F03AFFC04ADAF847
S315080010805032127A9A42C3D0BD4A13720BF000FC52
S3150800109084080BF0F7FB461CBA480BF0CDFCDAF8CF
S315080010A00C30361BD80700F1C882DBF80C30671CF9
S315080010B09A0700F18582DBF80C3027445B0700F1BC
S315080010C04582DBF80C301A07A2D5AF4827440BF047
S315080010D08BFCA31EB9B29BB2B0B21A460CF03AF911
S315080010E04FF0FF300BF080FCA7480BF091FCB91CC1
S315080010F006F11000032389B2A44A80B20BF08EFDD4
S31508001100DBF80C3013F4807487D00BF0C1FBDAF8E7
S315080011100C3081461B058ED4984810F0E9FE984B92
S315080011205A7ADAF850329A4202D1029B013382D0B7
S315080011304FEA99034FF0FF301C4607930BF054FC17
S315080011400BF0A0FB4FF6FE72121B104484B20BF094
S315080011509FFB0121831E224608469BB20CF0FAF833
S315080011608B480BF069FC4FF07F400BF03DFC4FF0CD
S31508001170FF300BF04DFC029BDBF85822032B00F0E6
S31508001180A7838449844805F071FA9BF81010002952
S3150800119000F06D864FF07F477F4EB04614247C4E94
S315080011A0A0B23A46FFF73EFCB38818F8011F023B87
S315080011B003EB430304EB43040029F1D1A6B20A3436
S315080011C04FF07F400BF010FC0C235A2130461A468C
S315080011D00CF0C0F80C23304682211A460CF0BAF8F7
S315080011E0029BDBF85422042B00F05D8369496A48A8
S315080011F005F03CFA9BF810709FB14FF07F48664E99
S31508001200B1463946624EA0B24246FFF70BFCB38898
S3150800121019F8011F023B03EB430304EB43040029BF
S31508001220F1D10BF02FFB6FF03104079BE41A04444D
S315080012304FF07F400BF0D8FB4FF0FF300BF0E8FB88
S31508001240029B052B00F0D583DBF850225149524802
S3150800125005F00CFA0323504A1421A0B20BF0DEFC69
S315080012604FF07F400BF0C0FB4FF0FF300BF0D0FB88
S31508001270029B002B00F0C682DBF864220024474953
S3150800128002F2B272444805F0F1F90323424AC82132
S3150800129064200BF0C3FC4FF07F400BF0A5FB4FF02A
S315080012A0FF300BF0B5FB2F2003233B4A8BF81000C9
S315080012B0C821A8208BF811400BF0B0FC029B012B2B
S315080012C000F0F383DBF8602200243249324805F047
S315080012D0CDF90323304AC821B9200BF09FFC4FF003
S315080012E07F400BF081FB4FF0FF300BF091FB2F2076
S315080012F00323294A8BF81000C821DB208BF81140FC
S315080013000BF08CFC029B022B00F0A683DBF85C2218
S315080013102049214805F0AAF903231F4AC821EC20D1
S315080013200BF07CFC4FF07F400BF05EFB4FF0FF307C
S315080013300BF06EFBDBF85032114A5372029B002BFE
S31508001340FFF679AE002D3FF476AE0C4810F0E2FCBD
S3150800135008480CF051FB9BF87452002D3FF473AE0D
S315080013600F4B0126BAF8767217A9BAF87A42052001
S3150800137018E000BF34180020C015002010180020FF
S3150800138000000020A4000020008000FF488F03080A
S3150800139094000020508F0308D0150020588F0308AA
S315080013A0608F030819931A951B971C9417960FF0CC
S315080013B057F8029B013300F0AA800BF063FA039BEF
S315080013C0C01A87420CD3A3420AD3089B9C4280F2D8
S315080013D09D823546DAF8182137E6FFF71BF92AE623
S315080013E04FF0FF33DBF81821002502932DE6C820BD
S315080013F032F0D6F9059B1B881D063FF5A6AD626837
S31508001400032A00F08483D8057FF59FADDBF8043006
S31508001410032BDAF8043000F3BA83022B7FF495AD78
S31508001420DAF818211369B3F5007FFFF48EADDAF800
S315080014300C100124B64841F08051B64B0088CAF812
S315080014400C10AAF81C01B44D1792CAF8144103CB24
S315080014501B8869602B812860FFF7DCF8642032F06E
S315080014609FF9AE4B0FA9052011930F940EF0F8FFC4
S31508001470A81EDAF81851AA4909F054F96862A8B101
S3150800148017A801F033FDA74B0FA9052011930F9458
S315080014900EF0E6FFDAF81831586A09F0B5F9A24BEA
S315080014A00FA905200F9411930EF0DAFFDBF80C3024
S315080014B001220020DBF8181123F080530861CBF8CD
S315080014C00C30CBF81421DBF80430984AB3F5827F48
S315080014D07FF742ADD2F84C0218F006FA9449052077
S315080014E002F0EAF931F016FB0028C0F2188640F23D
S315080014F09742904B0225904C17A9002017951994EE
S315080015001A921B930EF0ACFF43B0BDE8F08F0BF0B8
S31508001510B9F9039BC01A874240F2C680DAF80C5024
S3150800152015F4801540F0C080A34240F25F84DAF8D3
S315080015300C30DAF8182123F4C063CAF80C30DAF84C
S315080015400C3043F48073CAF80C307EE57B4806F10C
S3150800155004080BF049FAA31EB9B207F102099BB2B7
S31508001560B0B21A461FFA88F80BF0F4FE4FF0FF30B7
S315080015700BF03AFA71480BF04BFA08F10C001FFA17
S3150800158089F903236E4A80B249460BF047FBDAF81D
S315080015900C3013F4802FDAF8183100F01A811B6822
S315080015A009F1140108F1080013F0100F89B24FF081
S315080015B0030380B214BF634A634A0BF02FFB80E52E
S315080015C0624806F104090BF00FFAA31EB9B204F13A
S315080015D003089BB2B0B21A461FFA89F90BF0BAFE95
S315080015E04FF0FF300BF000FA58480BF011FA09F1EA
S315080015F00C001FFA88F80323554A80B241460BF0BF
S315080016000DFB049B186808F0EDFD049BDB68002BB6
S3150800161000F07281002800F06F81038803F08003D0
S315080016209BB2002B00F0908108F12801484603235D
S31508001630484A89B20BF0F2FA3DE54748371D0BF0E8
S31508001640D3F9A31E0121B0B29BB2BFB21A460BF062
S3150800165081FE4FF0FF300BF0C7F93F480BF0D8F981
S31508001660032307F10C003D4A194680B20BF0D6FA5F
S31508001670DAF80C30D90540F19781029B01333FF423
S3150800168014AD07EB54070323354A1721BFB2F81FD9
S3150800169080B20BF0C3FAA7F10E000323314A80B2D9
S315080016A02B210BF0BBFA00E5DBF80C3099055DD56C
S315080016B0072C5BD9069BDA0758D5083C2A4B0499B0
S315080016C083FB0403E417CA68C4EBE304944209D213
S315080016D04FF486730A4603FB0413DB7F13F00E0FE1
S315080016E040F00D85DBF818210025AEE44FF0FF31F8
S315080016F00498FEF78DFE059BCAF808401B8803F47C
S31508001700C073B3F5807F069B08BF0123069392E456
S3150800171000000020808F0308DE1600208C8F030847
S315080017209C8F0308A08F0308AC8F0308C015002000
S31508001730289003084C900308388D03080000FFFF23
S31508001740288F0308308F0308388F0308800000FFAE
S315080017500C8F030810F60408FF0000FFDC8E030850
S3150800176064FB0408048F030879787878DBF80C5052
S3150800177015F4806500F0D080A4F18C03502B1AD89C
S31508001780A7F16403502B00F29683DAF80C305B035A
S3150800179040F1D783DAF818311B68DE0640F1D884A1
S315080017A00CF090FADAF81821136823F01003136086
S315080017B00123CBF814310BF06BF88C38844280F097
S315080017C05A834FF49670002531F0EAFFDBF81821AA
S315080017D03BE41A69B2F5007F7FF673ACDAF80C20A1
S315080017E050057FF56EAC1B6899073FF56AAC09F1A1
S315080017F0140108F108000323D54A89B280B20BF018
S315080018000DFA5EE44FF0FF300BF0EEF84FF07F4034
S315080018100BF0FEF8002DDAF8642240F30D83812AD6
S3150800182002DC0132CAF8642202F2B272C949CA4815
S315080018302F2604F01BFF00240323C74AC82164206F
S315080018400BF0ECF94FF07F400BF0CEF84FF0FF307D
S315080018500BF0DEF80323C04AC821A8208BF81060D5
S315080018608BF811400BF0DAF9DBF86022BB49BA486D
S3150800187004F0FCFE0323B84AC821B9200BF0CEF9C0
S315080018804FF07F400BF0B0F84FF0FF300BF0C0F888
S315080018900323B14AC821DB208BF810608BF811406E
S315080018A00BF0BCF932E5002D40F3D8823A2A02DC67
S315080018B00132CAF85422A84EA849304604F0D6FE8A
S315080018C09BF81070002F00F0BC83DFF8948297E431
S315080018D0002D40F3BA823A2A02DC0132CAF85822AD
S315080018E09D4E9E49304604F0C1FE9BF81010002913
S315080018F000F087839A4F50E408F1280148460323ED
S31508001900984A89B20BF08AF9FFF7D5BBDAF818219D
S315080019104FF0FF35FFF799BBDAF80C30DB057FF59A
S31508001920E1AE0AF0AFFF039BC01A8742BFF4DAAEF6
S31508001930E52C3FF6D7AEC82C40F24D84A72F00F20F
S315080019405A840295FFF77FBB049A4FF05B0E04F1A9
S3150800195017013A208AF810E04FF02F08D2F800C095
S315080019604FF05D0E8AF8153089B20CF1300C8AF802
S31508001970120003234846784A8AF811C08AF814E008
S315080019808AF813800BF04AF9049A7749D2687248A4
S3150800199004F06CFE04F126014846032389B26E4A18
S315080019A00BF03CF9FFF787BBDAF85C02DAF8642239
S315080019B0DAF8603200901E3A6C49674804F056FE21
S315080019C038460323644A17210BF028F9DAF850023F
S315080019D0DAF85432DAF85822009065495E4804F07D
S315080019E045FE384603235C4A26210BF017F9FFF714
S315080019F05CBB4FF0FF300AF0F7FF4FF07F400BF06B
S31508001A0007F8002DDBF8502240F3D2823A2A02DC8E
S31508001A100132CAF8502251492F264F4804F026FEB3
S31508001A2003234D4A1421A0B200240BF0F7F84FF017
S31508001A307F400AF0D9FF4FF0FF300AF0E9FFDBF8E4
S31508001A406422444902F2B272434804F00FFE0323AB
S31508001A50414AC8216420F3E64FF0FF300AF0C4FF7C
S31508001A604FF07F400AF0D4FFA54240F3B382DAF87C
S31508001A705C221E2A02DC0132CAF85C223749364843
S31508001A8004F0F4FD0323344AC821EC200BF0C6F811
S31508001A904FF07F400AF0A8FF4FF0FF300AF0B8FF7A
S31508001AA0DBF85032334A53724FE44FF0FF300AF0F6
S31508001AB09BFF4FF07F400AF0ABFFA542DAF86022A1
S31508001AC040F37F820B2A02DC0132CAF860222349DE
S31508001AD00024214804F0CAFD03231F4AC821B9205F
S31508001AE00BF09CF84FF07F400AF07EFF4FF0FF3076
S31508001AF00AF08EFF2F200323174A8BF81000C821FF
S31508001B00DB208BF811400BF089F8FFF7FFBBD4F800
S31508001B1018211169B1F5007FFFF475ACE36801255A
S31508001B20179243F08053144AE3601892C4F814518C
S31508001B30FEF770FD17A801F0F9F902200CF0D8F8A5
S31508001B40E36823F08053E360C4F81451FFF7FDB946
S31508001B50408F0308588F0308D0150020508F0308BC
S31508001B60FF0000FF148F0308208F0308E48E030884
S31508001B70F48E03080000002091090008DAF84802EC
S31508001B80FEF7F8FF0123CAF80830FFF7EAB9042B75
S31508001B9000F02B82DAF804504FF48673DAF84822FC
S31508001BA042F21076053DC82703FB0523DB7F13F0B9
S31508001BB00C0108BF01266C1C19B142F210718E4245
S31508001BC012D09B071ED44FF48673DBF848222546AD
S31508001BD003FB0424E37F6C1C03F00C010029F0D0FE
S31508001BE042F210718E42ECD1DBF80C3059034ED517
S31508001BF00122C74B17A90520179219930EF030FC3E
S31508001C00FFF7A3B9C34B4FF0010817A9052019938D
S31508001C101A96013ECDF85C800EF022FCDBF80C30FB
S31508001C20BD4943F40063BD48CBF80C3033F020FDC2
S31508001C30BA4833F085FD4FF48673DBF8481203FB88
S31508001C4005F5B64A183510442944083133F010FD15
S31508001C50DBF84C124FF40012B048273100F018FD9B
S31508001C6000284FD1AE4B17A90320CDF85C801993F5
S31508001C700EF0F6FBDAF84C0217F036FEDAF80C30FE
S31508001C8023F40063CAF80C30002E9CD1B0E7A34CAD
S31508001C90A1492046029233F0EBFC204633F050FD72
S31508001CA04FF48673029A204403FB05F55119203137
S31508001CB033F0DEFC2EA9204608F0F8FD002897D15F
S31508001CC02046DAF81841974908F02CFD606200288A
S31508001CD08ED03B9B0124DAF8180117A9924A836231
S31508001CE005201A93199217940EF0BAFBDAF84832BF
S31508001CF020461D44EB7F5A074CBF1021202131F0A6
S31508001D009DFF75E7DAF8483217A91B9005201D4490
S31508001D10864BCDF85C80083519931A950EF0A0FB12
S31508001D200EAA0DA9DAF84C0200F050FD804D0D9A66
S31508001D3017A90E9B1C9005201A921B931995CDF88E
S31508001D405C800EF08DFB4FF07F400AF0CDFE0AF066
S31508001D5099FD0D9BC01A45080AF09AFD0E99DAF806
S31508001D604C22411A284649080BF068FA0AF090FDF9
S31508001D700E9B98422DD30025DFF8B881013508F56A
S31508001D801D700BF039FE9BF87432642093B931F05C
S31508001D9007FDBD42F0D1D8F80C304FF07F4023F450
S31508001DA00063C8F80C300AF09FFE6EB1C82031F007
S31508001DB0F7FC08E7D8F80C304FF07F4023F40063AF
S31508001DC0C8F80C300AF090FE4FF4167031F0E8FCB3
S31508001DD00EE7DAF84C820AF05BFDDAF84C5288F81E
S31508001DE016000AF055FD000AE875C4E7099B9C42EF
S31508001DF07CDADAF80C30484A23F4A0631278CAF879
S31508001E000C30DAF80C30303A43F40073CAF80C3068
S31508001E1040F0B180DAF800309D0740F1AF8002212A
S31508001E20312315463C4ACAF808101370CAF80460EC
S31508001E30DAF81821FFF709B93FF4F6AC1E2A7FF73E
S31508001E40F3AC013ACAF86422EEE43FF449AD002A3D
S31508001E507FF746AD013ACAF8582241E53FF42BAD63
S31508001E60002A7FF728AD013ACAF8542223E51E2432
S31508001E701426FFF7A5B90AF00BFD3C3884423FF655
S31508001E80A0AC0AF0FFFC039BC01A234BB7EB500F1C
S31508001E905B6880F07781042B04DD1F4B1E4A5B6864
S31508001EA0053B53601C4B5868C0B20BF03FFF01233B
S31508001EB0CBF8143185E4A7F596734F2B3FF67BAC28
S31508001EC0DAF80C30DAF8182113F4802F136840F08A
S31508001ED03B81990740F1A88123F002031360C820CB
S31508001EE031F05EFC0123CBF8143164E40A9B9C4272
S31508001EF036DADAF818211369B3F5007F46D9DAF825
S31508001F000C30580542D50223CAF80430FFF79DB8AD
S31508001F1050900308D88F030800000020D015002031
S31508001F20EC8F0308B88F0308BC8F030808900308D2
S31508001F3018900308C015002040F21F22DA60FFF748
S31508001F4002B8DAF80C30DD0200F1F380DAF818315D
S31508001F501B69B3F5007FC5D30323CAF80430C1E76C
S31508001F60069B002B3FF4BEAB0423DAF81821CAF807
S31508001F700430FFF76AB8012A00F0F3800123DBF882
S31508001F8018210025CBF80830FFF75FB8DBF80C30CE
S31508001F900121002523F44073CBF80C30DBF80C3014
S31508001FA043F48063CBF80C30CBF81411FFF74DB827
S31508001FB03FF431AD002A7FF72EAD013ACAF8502218
S31508001FC029E53FF484AD012A7FF781AD013ACAF8C5
S31508001FD060227CE53FF49AA9DAF85C22012A7FF7A9
S31508001FE04DAD013ACAF85C2248E5DAF84822166986
S31508001FF0002E7FF7FDADD37F6427002503F00C0183
S31508002000D9E54FF07F400AF0EFFC0C235A21142043
S315080020101A460BF09FF90C23822114201A460BF05E
S3150800202099F9DAF854229849304604F01FFB9AF8D1
S315080020301070002F00F002814FF07F481E24FFF732
S31508002040DFB80AF01FFC6FF03104079BE41A04445A
S315080020504FF07F400AF0C8FC4FF0FF300AF0D8FC7A
S31508002060DAF850228849304604F000FB032332464A
S315080020701421A0B22F240AF0D1FD4FF07F400AF0B8
S31508002080B3FC4FF0FF300AF0C3FCDAF864227F494C
S31508002090304602F2B27204F0E9FA32460323C82146
S315080020A064200AF0BBFD4FF07F400AF09DFC4FF01C
S315080020B0FF300AF0ADFC32460323C821A8208AF86F
S315080020C011708AF810400AF0A9FDFFF7FBB8704AAC
S315080020D02EA903202E94319330920EF0C1F9FEF703
S315080020E0D8BE63B229333EF419AE01F07FFC6949C4
S315080020F002462312032001F0DFFBFEF70FBE10464F
S3150800210021460534FEF784F94FF47A70002531F03C
S3150800211047FBDAF81821CAF80440FEF796BF009084
S3150800212040F296425C4B03205C4901F03FFCFFF706
S31508002130DEB9DAF818211368D8064CBF23F0100365
S3150800214043F010031360CDE643F020031360C6E6A0
S315080021500BF0A2FDDAF81821136843F01003136098
S31508002160C0E6DAF80030DC077FF508AF0221302335
S31508002170CAF808104A49CAF804200B70DAF8182178
S31508002180FEF763BF5F2B3FF78DAE454B444A5B684E
S315080021900533536086E6009040F2C932414B03206E
S315080021A03E4901F003FCFEF7C1BD2F230520C4F804
S315080021B0643231F0F5FA04F514700FF0ABFDFEF752
S315080021C072BE009040F2B932374B0320334901F012
S315080021D0EDFBFEF798BD502C19D90AF053FB039B6B
S315080021E0DAF81821C01AB7EB500F34BF03230423BB
S315080021F00293FEF72ABFDA2F1AD9B7F5877FBFF4FD
S3150800220071AA0223DAF818210293FEF71EBF0AF014
S3150800221039FB0B9BDAF8182118448742FEF415AFF0
S3150800222005230293FEF711BF082030F067FE56E635
S315080022300123DAF818210293FEF707BF0AF022FBFA
S31508002240079A6FF031039B1A1C184FF07F400AF06B
S31508002250CBFB4FF0FF300AF0DBFBDAF850220A49D5
S31508002260304604F003FA3246A0B2032314210AF0DA
S31508002270D5FC4FF07F400AF0B7FB4FF0FF300AF06D
S31508002280C7FBFEF7F9BF00BF508F0308588F030836
S31508002290B08E03086C8D030840900308388D030838
S315080022A000000020948D0308008D0308F0B5194F2F
S315080022B095B0194C0125194E15E000F0EFFE0220E5
S315080022C00BF016FDD4F81831586A08F09DFAE36841
S315080022D001A9052023F4802301950397E360C4F838
S315080022E014510EF0BDF801226B463021104631F02C
S315080022F081FDE368009909A843F48023D4F81821DE
S315080023000A96E360CB060992D7D409A801F00AF821
S31508002310D5E700BF5C900308C015002091090008A6
S3150800232070B5264C94B0264E0422E3681021D4F8E2
S3150800233018514AF6444043F480130A960995E36017
S315080023400CF06EFF28B1E36823F48013E36014B041
S3150800235070BDD4F818314FF480611A68986942F054
S3150800236012021A600BF056FDD4F818314FF480515A
S31508002370D8690BF071FDD4F818510BF067FDA86207
S3150800238009A801F04BF801220E4B01A9049005207B
S31508002390019203930EF064F80BF0B4FD0CF0DEF92D
S315080023A0D4F81811E2680B6822F4801223F012039D
S315080023B0E26043F480730B6014B070BDC015002052
S315080023C07503000868900308C3695A6899689142BA
S315080023D004D9501C19685860885C70474FF0FF3064
S315080023E0704700BF70B4C6697368B0685C18A042CD
S315080023F011D33568002908462B4409DD013A5D18D2
S3150800240013F8014BAB4202F8014FF9D174680C443A
S31508002410746070BC7047002070BC7047C3695A6806
S315080024209868904206D9186810B4541C5C608154A8
S315080024305DF8044B704700BF70B4C6697468B3682A
S315080024406518AB4211D30029336808460ADD013CFA
S315080024505518234412F8014BAA4203F8014FF9D143
S3150800246075680D44756070BC7047002070BC704775
S315080024700020704738B58469636833B12268013B28
S31508002480511C84E80A00107838BDE3680546984769
S3150800249028B92B68192228465A611B689847636829
S315080024A0ECE700BF03682DE9F04F064689B09F6E3A
S315080024B0FFF7E0FF04463046FFF7DCFF002F00EB8E
S315080024C00420D4BF4FF0000B4FF0010B841E17F009
S315080024D0D9F9002F80460EDDD6F8B431FE2B67D029
S315080024E0E03B0125374A6946032003930494009587
S315080024F002920DF0B5FF0025DFF8CCA0A946013CF5
S3150800250015D43046FFF7B6FF002FF8DD0D2829D081
S315080025100A2837D05C283AD0A0F120035E2B3ED893
S31508002520013C08F80500814605F10105E9D57DB1AC
S31508002530BBF1000F0CD000240122234B694605206D
S31508002540CDF80C8008F80540009202930DF088FF3C
S31508002550C82031F025F9404617F0C6F9012009B020
S31508002560BDE8F08F0023012281466946052008F858
S315080025700530CDF808A01D46CDF80C8000920DF068
S315080025806FFFBCE7B9F10D0FECD18146B7E76B1CBD
S3150800259008F805008146023508F80300AFE7024649
S315080025A00A4908EB05000435914604F05FF8A6E7EA
S315080025B00122074B694603200394009202930DF00B
S315080025C04FFF98E79C90030860910408B0900308B1
S315080025D08490030800B58BB0054601A832F02EF8A2
S315080025E00122074B02A9019C032002920493059538
S315080025F006940DF035FF30F0F3FE0BB05DF804FBE2
S31508002600B890030800B58BB001A832F017F801227C
S31508002610064B02A9019C03200292049305940DF02F
S315080026201FFF30F0DDFE0BB05DF804FBCC9003080D
S31508002630002A07DD0139024410F8013B904201F8EF
S31508002640013FF9D1704700BFF0B50B4C0346002592
S31508002650DFF838E0A26020462160084F084E094995
S31508002660094A6560DC61C3F808E0DF601E615961EC
S315080026709A611D60F0BD00BF40180020E5230008E0
S315080026801D2400083924000871240008C9230008FD
S315080026902DE9F041ADF5247D414B424D044609A88C
S315080026A08846EB6017461DF025F94FF4F4722A9018
S315080026B05A212AA84FF47A7619F094F83A4A40F241
S315080026C014432AA82792FE21384A299328961BF0F4
S315080026D0E7FF2AA8354AEC211BF0E2FF20463449D9
S315080026E008F020F8064600284AD001462AA819F01C
S315080026F011FC01212AA819F0BFF92AA81FF0D6FA59
S315080027002C4A2D4B04462A6205F110012B4A2AA8A9
S31508002710EB6100236A622A4AED62AA62294AE160ED
S31508002720AA616B602B61C5F80080AF6019F07CFA6E
S31508002730236821462AA89847479A4D9B9A420DD95D
S3150800274062692AA8216919F0B9FA6368024621461E
S315080027502AA898474D9A479B9A42F1D3A3682146DF
S315080027602AA898472AA819F0CFF92AA819F090F8A4
S31508002770304608F049F868680DF5247DBDE8F08113
S31508002780ED680122104B01A90320049505940192D6
S3150800279003930DF065FE30460DF5247DBDE8F08106
S315080027A0E09003084018002080900308A52400083C
S315080027B0B88F03081D240008E523000839240008FB
S315080027C071240008C9230008E8900308A8B12DE978
S315080027D0F04F8BB0804608A80392029109AB00908F
S315080027E007AA6B4908F1280004F080F9079B062B15
S315080027F005D000200BB0BDE8F08F002070472722D7
S315080028000021404632F0E6FE0998089B362105125B
S3150800281018221C1288F8120088F8163000EB4000BF
S3150800282088F8135088F8174088F80A1088F81C208A
S3150800283017F028F8089BDDF82490002B9A46049395
S31508002840B8BF03F1010A4FEA6A0ABAF1000F40F36A
S315080028509B80049B09EB490BA9EB8901CDF81480F1
S315080028605A1E0BF1030608F139034FF0000C09FB59
S3150800287002F200EB0B07064402EB420202F1350EA8
S31508002880C6448846B9F1000F7BDDC21C194611F80B
S31508002890034C033211F8015C033102F8044C11F8B9
S315080028A0054C02F8065C02F8054CB242EFD10EF16F
S315080028B0040203EB0B0112F8034C0333033203F84B
S315080028C0044C12F8044C03F8064C12F8054C03F8AD
S315080028D0054C8B42EFD1BBF1000F07DD724603466C
S315080028E013F8014B9F4202F8014FF9D10CF1010C84
S315080028F0C6440B46E245C5D1DDF81480049BDB07C8
S315080029002ED50AFB09FAB9F1000F0AEB4A0A0AF1B1
S31508002910360308EB030216DD09F10106C31CD11CB8
S3150800292006EB4606064411F8034C033311F8015C1E
S31508002930033103F8044C11F8054C03F8065C03F858
S31508002940054C9E42EFD109EB4904002C08DD013AFB
S315080029500444034613F8011B9C4202F8011FF9D1EF
S3150800296016F0C2FF049A029B09FB02F0C3F8009016
S3150800297000EB4000039B363019460A600BB0BDE8F1
S31508002980F08F03EB0B01A6E74FF0000AB6E700BF8E
S31508002990FC900308F0B50C46076889B008468E8F88
S315080029A02DF0A8FA636901223C6A6946064D1B1B8D
S315080029B00490032003960593029500920DF050FDAE
S315080029C0002009B0F0BD00BF0891030883682DE90F
S315080029D0F04F04468DB01646D0F80080002B7CD008
S315080029E0D8F8005015F020054FD141F2082AF3888F
S315080029F006F1080BB244002B47D099465B4E41F2CC
S31508002A0088376369B34215DDA368012B43D00122D9
S31508002A10009703AB0321104631F07CFA0028F0D06A
S31508002A20D8F80030DB0634D4002D3BD06369013D6D
S31508002A30B342E9DC5BF8047B31F030FEE36807F566
S31508002A408057D8F80820581C07F31C07E06079134C
S31508002A507F15D154E368D8F80820591CE160D7548B
S31508002A60434AE368934202D9A3F50023E360626907
S31508002A70A369A16A0232023302296261A36138D0CE
S31508002A8031F02AFEB9F10109B9D100200DB0BDE82F
S31508002A90F08F0525B5E7636820469847A368013394
S31508002AA0A360B4E70346334A012504A90320079324
S31508002AB0069204950DF0D4FCD8F800306FF0004269
S31508002AC0D8F82810002043F02003C8F82C10C8F8BE
S31508002AD00030E2610DB0BDE8F08F3368928843623A
S31508002AE0826243689847034638BBA3680133A360EC
S31508002AF076E7DAF800300AF1040AE26803F580534B
S31508002B00D8F80810501C03F31C03E06058135B1533
S31508002B108854E268D8F80810501CE0608B54144AB0
S31508002B20E368934202D9A3F50023E3606269A369C7
S31508002B30023202336261A361A2E70F4A012504A9A2
S31508002B4003200793069204950DF08AFCD8F8003006
S31508002B500220D8F828106FF0004243F02003A06046
S31508002B60C8F82C10C8F80030E2618EE7FCFF0700B1
S31508002B70FFFF07005091030838910308F0B5046871
S31508002B8089B0E26AA36A9A4202D3102009B0F0BD5E
S31508002B9023689B06F9D48E690D4646B1226A3046EB
S31508002BA0636B114613449A1B6263FFF741FD606B22
S31508002BB00121266AC0F58032636A30440F4603F065
S31508002BC051FAE36A626B064605936946274B052068
S31508002BD003960492009702930DF042FC0EBB636BBA
S31508002BE0C3F58032072A34D90022114600E0636B08
S31508002BF0B3F5803F184606D2206A10440132082AE7
S31508002C00C154F4D1606B0246216A606328462DF0F0
S31508002C1039F9A26AE36AA2F5806199420DD80020C3
S31508002C20B4E7626B2846216A324462632DF02AF9BA
S31508002C30E36A00201E44E662A8E701250C4C6946B3
S31508002C40032003930492009502940DF009FC1020CA
S31508002C509CE70822074E69460320039300970296CD
S31508002C6004920DF0FDFB636BBEE700BF6891030895
S31508002C70C89103089C910308F0B40903C569426921
S31508002C808B1E0D441A4405F580542B4633F8021B57
S31508002C90A34222F8021FF9D10468E30615D4036992
S31508002CA0C16803F5005687688E4210D203F5805234
S31508002CB04FF4805402619A1E00233A44013335F8D2
S31508002CC0021BA34222F8021FF8DBF0BC7047C91AA0
S31508002CD044F488764C0806601A190261002CEAD179
S31508002CE0F3E700BFF8B52C4D4FF6FB7C069C4FF674
S31508002CF0FC7E2E68013C7569C4EB843437696545EA
S31508002D0088BF7546934201EB840100EB070434D271
S31508002D10336A7A199A421FD2B5B30023221F0433A5
S31508002D2052F8040F9D4241F8040BF8D84FF6FB728F
S31508002D30934208D800244FF6FB705B1A41F8044BFF
S31508002D40CA188242FAD932694FF6FC7073692A4466
S31508002D505D1B32617561F8BDDF1B17D0221F00238A
S31508002D60043352F8044F9F4241F8044BF8D8002226
S31508002D709D423261DAD90446D0E7724608460021F8
S31508002D8032F028FC0020F8BD2B46D3E73761002D2A
S31508002D90FAD004463B46C1E7701800200E4B30B502
S31508002DA01C6883B01CB1206803689B0701D503B073
S31508002DB030BDE1694FF6FC730225A2690B444169EF
S31508002DC08068E3610095FFF78DFF2946012003B06F
S31508002DD0BDE8304030F0A2BF701800200E4B30B569
S31508002DE01C6883B01CB1206803689B0701D503B033
S31508002DF030BDE1694FF6FC730125A2690B444169B0
S31508002E008068E3610095FFF76DFF2946284603B001
S31508002E10BDE8304030F082BF7018002030B5084950
S31508002E2089B0084A00238C68012569460520009563
S31508002E300394029204930DF013FB09B030BD00BF52
S31508002E4070180020F891030808B5064B01211B6885
S31508002E501868FFF711FF0221BDE80840084630F060
S31508002E605DBF00BF7018002008B5064B00211B681F
S31508002E701868FFF701FF01210220BDE8084030F07D
S31508002E804DBF00BF7018002010B5074888B0012351
S31508002E90064A8468694605200093039404930292BF
S31508002EA00DF0DEFA08B010BD70180020F89103087E
S31508002EB010B50B4C15F06AFBA0604FF4401016F0E5
S31508002EC0E1FC4FF44013E0600648236116F0DAFC93
S31508002ED0054A04F14003A061201DE261236210BD8A
S31508002EE070180020F8FF0100A805002070B50568D5
S31508002EF000240FE0A342AE684FF0010238BF191A4A
S31508002F006B6A304403F0C0F806460A2030F048FCE5
S31508002F10012E08D12B694FF480412046A3420C4468
S31508002F20E8D8002070BD6FF0040070BD2DE9F047A9
S31508002F30D0F800808CB0D8F81030B3F5007F04D2F2
S31508002F40002528460CB0BDE8F087D8F80850044696
S31508002F50D8F80C100027EB8A0126AA696868DFF8FA
S31508002F60389109926A8C0893464B216204A9079006
S31508002F700520A7600A920693C9F8004004960DF04A
S31508002F806FFAEB6904A92A8C052008933E4B079231
S31508002F90069304960DF064FAAB6A04A93B4A052029
S31508002FA00793069204960DF05BFAD8F8003020468F
S31508002FB0E98AAA693343D5F828E0C8F80030A1623F
S31508002FC062626368C4F818E09847A368A269304942
S31508002FD033448A42A36049D9C8F83010C8F8386023
S31508002FE002F12C062C230125D8F81410D8F808006D
S31508002FF041F2883AE660022662612361E361009540
S315080030000025FFF76FFEE369A269D8F81410D8F80F
S3150800301008000096FFF766FE636820469847A3688F
S315080030200133A360E7690122A66903AB03211046B1
S31508003030B74212D2CDF800A030F06CFF0546D0B1E9
S31508003040D8F80030DB06EDD40122124B04A9032080
S315080030500795049206930DF003FA00232846C9F84B
S315080030600030C8F800300CB0BDE8F087C8F830204A
S31508003070C8F83870B4E7636820469847A3680133F0
S31508003080A360CFE7149203085492030878920308C2
S31508003090F8FF01008C920308701800202DE9F04F04
S315080030A0964E0446056800234FF4002106F6487735
S315080030B00122DFF868B28DB00162A3602421E360C3
S315080030C0384623619046E3612B616B6ACBF8004072
S315080030D002F0C8FFD6F8582F04A9894B0790052097
S315080030E009970892CDF8108006930DF0B9F9D6F82D
S315080030F0581F102900F2FB80804F01226B6A0821B5
S3150800310007F66C7002F0AEFF7E4BD6F86C2F9A422B
S315080031100DD06B6A0122D7F8701FA86802F0A2FFCB
S3150800312007F66C706B6A0122082102F09BFFB6F85D
S315080031305E3F0127D6F84C2F04A908930520D6F838
S31508003140603F07920993B6F86A2F6F4B0A92049765
S3150800315006930DF085F9D6F8643F04A9B6F8682FEA
S3150800316005200893694B0497079206930DF078F9A2
S31508003170D6F8703F04A9664A052004970793069275
S315080031800DF06EF92B682046D6F8602FD6F8707FBA
S3150800319043F00103B6F85E1F2B6062626368A7619D
S315080031A0A1629847A368A2690133B2F5002FA3600C
S315080031B000F29580574BEA629A4200F29380002308
S315080031C02A63AB636B6A01210126A86802F04AFFED
S315080031D0AF6869694FF00008E36941F28839A26966
S315080031E0E0606061384600960226FFF77BFDE369DA
S315080031F0A2696969A8680096FFF774FD63682046A6
S31508003200DFF81CA19847A3680133A360E769012288
S31508003210A66903AB03211046B74212D2CDF8009037
S3150800322030F078FE8046A0B12B68DB06EED401228A
S31508003230394B04A90320CDF81C80049206930DF09F
S315080032400FF900234046CBF800302B600DB0BDE8DF
S31508003250F08FEB6AAE6AF21A002AD7DDD4F814C0EA
S31508003260E068CCF50026C0F5002E9642A8BF1646A3
S315080032708219374652451AD9BEF1000F72464FF0E9
S31508003280010109DDAF686B6A384402F0EBFED4F839
S3150800329014C08646EB6AE068A0F500200EEB0C0227
S315080032A07344CEEB060770446261E060EB62AE6879
S315080032B03A466B6A0121304402F0D4FEE3680646BA
S315080032C0616920469A193144EE6A63683744E260B8
S315080032D06161EF629847A3680133A36096E74FF4EC
S315080032E00022EA620B4901232963AB636AE7424677
S315080032F010396B6AA86802F0B5FEFDE66829002059
S31508003300A092030864617461149203085492030836
S3150800331078920308F8FF0100BC9203087018002091
S31508003320FFFF07002DE9F0430446DFF8E8809BB06D
S315080033304FF4803025680026C8F8004016F0A2FA37
S315080033402F4A01272F4B0DA92A63AA6A286205204E
S315080033506E63EE622E61AF6310920F930D970DF0B8
S315080033607FF82A684FF40021A66033463A43E660A0
S3150800337026610DA86661A661E661216221462A607A
S31508003380DFF894E0204ACDF808E00396009601920B
S315080033901E4A29F06FFA31460DA81D4E29F086FA05
S315080033A081460DA829F080FAAA6AEB6A05A90520C4
S315080033B008920993059707960DF052F8E269A369F2
S315080033C09A420CD24FF47A76012205AB0096032175
S315080033D0104630F09FFDE269A3699A42F4D3286A41
S315080033E016F082FA0023B9F1000FC8F800300CBFB6
S315080033F018466FF028002B601BB0BDE8F08300BFAD
S31508003400F8FF0100D0920308CD2900087D2B00089B
S31508003410E49203087018002095290008F0B50546BF
S315080034208DB00023234A2C682C204FF40056AB603D
S3150800343001271560039304A9A2681F4B2061052084
S3150800344026634FF47A760497079206930DF008F8E8
S31508003450A768242219483946FFF7EAF807F1240134
S3150800346008221748FFF7E4F8206803AB0122032176
S3150800347010F0020F4FF002000ED0009630F04AFD11
S315080034800028F1D1AB68002BEED16B682846984727
S31508003490AB680133AB60E7E7AB68934206D02369B4
S315080034A0A3F12C007B60B8620DB0F0BD6B682846AE
S315080034B09847F4E7701800200493030814000020C6
S315080034C038000020012803DD4A68024B12781A707A
S315080034D000207047E0380020012870B538DD4D68B7
S315080034E02A78A2F13003092B55D8002404EB84036B
S315080034F002EB430315F8012FA2F13006A3F13004BD
S31508003500092EF3D902281FD08868A3F13102017861
S31508003510A1F13003092B32D8002303EB830301EB17
S31508003520430310F8011FA1F13005303B092DF4D9EA
S31508003530072A0DD82BB301221D4D631E02FA03F389
S315080035402A681A432A6004E0A3F13102072A18D927
S31508003550174D18480024012602F0A2FD06FA04F3C6
S315080035602A6801341448134208BF144803F064F863
S31508003570082CF3D10A2002F0ADFD002070BD072A01
S31508003580E6D801220A4D631E02FA03F32A6822EAE4
S3150800359003022A60DDE70228DAD088680178A1F1FB
S315080035A03003092BD4D84FF0FF320024B4E700BF0C
S315080035B0B4840120D0930308F4930308FC9303080A
S315080035C0022851DD486838B50278A2F13003092B84
S315080035D040D8002505EB850302EB430310F8012FBD
S315080035E0A2F13004A3F13005092CF3D98968A3F1B7
S315080035F031020B78A3F1300009281CD8002404EB0B
S31508003600840403EB440411F8013FA3F13000303C75
S315080036100928F4D9032A01D9002038BD0FF090F8FB
S315080036206CB1134A6B1E32F81330184380B20FF090
S3150800363093F8002038BD032AEED80FF081F80C4A1B
S315080036406B1E32F8133020EA030080B20FF084F8BC
S31508003650002038BD89680B78A3F13002092ADBD827
S315080036604FF0FF320025C9E74FF0FF30704700BF23
S3150800367018930308014802F0F1B800BF4000002083
S31508003680024B002218781A7040B27047E0380020C2
S315080036902DE9F04F85B01F464FF0000E0DF10408D6
S315080036A0DDF83C90109EC4460EF10104B0FBF1F51E
S315080036B00A2C01FB150E28468CBF00230123002D7A
S315080036C012F80EB02546A64608BF00230CF801BB23
S315080036D0002BE9D10E9B13F1000B18BF4FF0010B1D
S315080036E01FB1BBF1000F00D0013FB9F1000F02D0A6
S315080036F0BBF1000F1FD1A7420BD9B9F1000F14BFB8
S315080037004FF0300A4FF0200A01355046B047AF4215
S31508003710FAD1B9F1000F02D1BBF1000F08D1444428
S3150800372014F8010DB047A045FAD105B0BDE8F08FF1
S315080037302D20B047F3E72D20B047DCE7F0B5044667
S3150800374085B00D461646207830B1252806D00134B6
S31508003750B04720780028F8D105B0F0BD6078302849
S3150800376044D002340021A0F13003092B4FF00003A6
S315080037700AD803EB830300EB430314F8010BA0F10B
S315080037803002303B092AF4D96C281ED0642820D090
S315080037900BD825283DD02DD958282FD06328D2D12B
S315080037A02F1D2878B0473D46CDE7732833D04BD92F
S315080037B075283CD10022286801910A210092043517
S315080037C00296284AFFF764FFBDE72078013464288B
S315080037D0DED128680435002839DB002201910296DB
S315080037E00A2100921F4AFFF753FFACE7A078012190
S315080037F00334B8E70028A6D1013CA4E700222868CC
S3150800380001911021009204350296174AFFF740FFEE
S3150800381099E7B04797E72F680435387801370028C5
S3150800382091D0B04717F8010B0028FAD18BE7782812
S3150800383089D1002228680191102100920435029648
S315080038400A4AFFF725FF7EE77028F2D07BE70122B8
S3150800385001910296404200920A21024AFFF718FF98
S3150800386071E700BF10940308309403081C940308FA
S315080038700368012B08D0022B05D10A4600F108017E
S315080038800448FFF75BBF70470A4600F10C018068E1
S31508003890FFF754BF4494030810B582B00C4602A93A
S315080038A0224641F8040D0348FFF748FF0A20A047BF
S315080038B002B010BD649403080EB4F0B58AB00122B4
S315080038C00FAB1446029253F8041B1D4601930B785E
S315080038D00491052C8CBF00220122002B08BF002270
S315080038E09AB3252B4B7801D00131F2E78A1CA3F154
S315080038F03001092905D812F8013BA3F1300109293D
S31508003900F9D96C2B0BD0642B31D026D8582B2ED056
S31508003910632B0FD0002B3DD013781146D9E71378C7
S31508003920511C642B24D02ED9732B02D036D8702B79
S315080039302ED10A460AAB2968043503EB8403013401
S3150800394043F8181C11461378C3E702A90CF088FD42
S315080039500AB0BDE8F04003B07047732BEAD002D82E
S31508003960702BE7D0D8E7752B01D0782BD4D1114628
S315080039700AAB2E68621C043503EB84070B781446E1
S3150800398047F8186CA5E7582BF2D0632BD1D053B162
S3150800399053789EE712F8013C511E9AE7752BE7D03B
S315080039A0782BE5D0F4E70A46F6E700BF2DE9F0479D
S315080039B088B082460F469046109C99460A4E0125C5
S315080039C02046241200F012F8694603905046CDF8B6
S315080039D014900494CDF818800797029600950CF079
S315080039E03FFD08B0BDE8F0877C9403083A30C0B2C2
S315080039F03A2803D8024B53F820007047014870470D
S31508003A00AC940308989503081D4AF8B5136806464A
S31508003A101C4D0F4643F0006313602B6823F0805358
S31508003A202B602B6898000AD5174C01E0013C24D07E
S31508003A304FF47A702EF096FE2B689A00F6D4134B44
S31508003A40104D186800F0FE4040EA074040EA86102C
S31508003A5018602B6843F080532B602B6899000AD4B2
S31508003A60094C01E0013C08D04FF47A702EF07AFE3A
S31508003A702B689B00F6D50020F8BD6FF03100F8BD25
S31508003A809038024000380240A1860100883802407A
S31508003A9070B5884D82B02B6823F480232B602B6881
S31508003AA023F480332B602B6898030BD5824C02E0F5
S31508003AB0013C00F0BB804FF47A702EF053FE2B6861
S31508003AC09A03F5D47B4D2B6823F480332B602B683F
S31508003AD023F480232B602B6843F480332B602B68F8
S31508003AE099030BD4744C02E0013C00F09F804FF41C
S31508003AF07A702EF037FE2B689E03F5D56D4D2B6830
S31508003B0023F080732B602B689B010BD56B4C02E06E
S31508003B10013C00F08B804FF47A702EF023FE2B6860
S31508003B209901F5D4634D664B664A1A602B6843F0D3
S31508003B3080732B602B6898010AD4604C01E0013C25
S31508003B4074D04FF47A702EF00DFE2B689B01F6D5D3
S31508003B505D4B5E491A685E4D42F080521A601B68DA
S31508003B6003F080530193019B0B6843F480330B6089
S31508003B702B68DA030AD4574C01E0013C56D04FF4BF
S31508003B807A702EF0EFFD2B68DE03F6D54F4A504DBE
S31508003B90136843F4003313602B6813F4003340F0C2
S31508003BA082801C464B4E01E0B4423FD04FF47A70F7
S31508003BB001342EF0D7FD2B689803F5D50121C020D6
S31508003BC0FFF722FF444A136803F00F03062B31D888
S31508003BD0136823F00F0343F007031360136803F019
S31508003BE00F03072B00D0FEE73C4B32491A6822F038
S31508003BF0F0021A600A68910157D51A6822F0030282
S31508003C0042F002021A601A6802F00C02082A3AD038
S31508003C101D46294E4FF47A7001342EF0A3FD2B6809
S31508003C2003F00C03082B2ED0B442F3D16FF0310009
S31508003C3002B070BD294B1F491A6822F0F0021A60BB
S31508003C400A68920131D51A6802F00C02082A0ED0C9
S31508003C501D46194E01E0B442E8D04FF47A7001349B
S31508003C602EF080FD2B6803F00C03082BF3D11A4ABB
S31508003C70136823F00F0343F007031360136803F078
S31508003C800F03072B11D1154A0020136823F4E053BC
S31508003C9043F4A0531360136823F4604343F40043CA
S31508003CA0136002B070BD002488E76FF0040002B00C
S31508003CB070BD00BF00380240414B4C00A186010090
S31508003CC004380240196440794038024000700040C8
S31508003CD00470004041420F00003C02400838024090
S31508003CE0534B002253481968DFF89CC141F0010183
S31508003CF0F0B5514E0525196083B0326019684F4CEE
S31508003D0008404F4F4F49186027601C684E4824F4F6
S31508003D108024DFF878E14D4F1C6072600B684C4CCC
S31508003D2023F480334B4E0B60036823F001030360D2
S31508003D30CEF80020C7F800C0266005600B6843F47B
S31508003D4080330B60BFF34F8FBFF36F8F424B103931
S31508003D501A600B6843F400330B60BFF34F8FBFF351
S31508003D606F8F3E4B0A671D68C5F3C90705F007063E
S31508003D70C5F34E35B7FA87F0043600F01F00BFF3D7
S31508003D804F8F04F5E07405FA06F13B4603FA00F294
S31508003D90013B0A4322605A1CF8D115F1FF35F2D2CD
S31508003DA0BFF34F8F2E4A136843F480331360BFF373
S31508003DB04F8FBFF36F8F2B494FF6FF022A4B002018
S31508003DC00C68224013430B60FFF762FE08B903B084
S31508003DD0F0BD264B0022264F022501921968254E72
S31508003DE041F480712448254A19601B68244C0193C4
S31508003DF0019B3B6823F00C0343F004033B603368E4
S31508003E0043F00C033360036823F00203036013686E
S31508003E1023F00C0343F004031360256019482EF0C1
S31508003E20A1FC4FF40033174823602EF09BFCF4E7FF
S31508003E3000380240FFFFF6FE083802400438024008
S31508003E401030002424ED00E094ED00E09CED00E045
S31508003E50A0ED00E02300020350EF00E080ED00E053
S31508003E6014ED00E00CED00E00003FA0530380240DE
S31508003E700020024008200240042002400C20024094
S31508003E801820024000C2EB0B0000012098ED00E06C
S31508003E9038B540B20D462EF0C3FC20201C242EF067
S31508003EA0BFFC45FA04F3043C03F00F03092B03F1A6
S31508003EB03000C8BF03F137002EF0B2FC231DF0D145
S31508003EC00A20BDE838402EF0ABBC00BF084A0021E6
S31508003ED0084B02F1880030B402F1180502F10C040F
S31508003EE058611C61D960D96183E8240030BC7047E9
S31508003EF058960308E07E012001382DE9F04FDFF8D7
S31508003F003C924FEA00188BB009EB080559F80800EF
S31508003F106B68064600901A6AE868A9600190996C71
S31508003F20002A00F0D980002900F0D68034684FF0C6
S31508003F30FF302062206820F001002060B06830B9A8
S31508003F407B4F386800F0020040F0010038601F68B7
S31508003F504FF00F0B5E683868DFF8E4E130433860ED
S31508003F609F68DE683868304338609F681E6938681D
S31508003F703043386010689F6A0740D86A3843106033
S31508003F8090681F6B0740586B3843906050689F6B6A
S31508003F900740D86B38435060D0681F6C0740586C90
S31508003FA03843D06008681F6D0740586D384308606D
S31508003FB088689F6D0740D86D3843886048681F6ECB
S31508003FC00740586E38434860D0689F6E0740D86EE1
S31508003FD03843D06093F824001F7F4FEAD00C00F0D6
S31508003FE007000CF1080C800052F82C600BFA00FA56
S31508003FF007FA00F026EA0A0A4AEA000042F82C0004
S3150800400093F84C701A7FF80807F0070308309B00EE
S3150800401051F820700BFA03FC02FA03F3009A27EA18
S315080040200C073B4341F82030636823F44053636030
S31508004030236803EA0E0E4EF00C032360A36823F4EC
S315080040403063A3603A4B92681B68D34003F00303BE
S31508004050022B59D0032B5CD0012B57D00A2A14BF48
S315080040604FF4D9734FF45973E360A246636823F497
S3150800407090436360A36823F02A03A360236843F090
S3150800408001034AF81C3BE36903F4C003B3F5C00F08
S3150800409011D06FF07E47009E01E0013F3BD04FF400
S315080040A07A702EF05FFBDAF8003003F4C003B3F53C
S315080040B0C00FF2D1009623680122C84443F48073E6
S315080040C02360A3681343A360236843F02003236097
S315080040D0019BC8F80C201BB128460BB0BDE8F08F31
S315080040E0009B586830F0FEFB0028F5D00226114CDC
S315080040F04FF4CB72104B019802A9029604940592CC
S3150800410006930CF0ADF9E7E78A23ADE74FF4D963D8
S31508004110AAE70023A8E72368284623F4D073236078
S31508004120A36823F00103A3600BB0BDE8F08F00BFBE
S31508004130903802405097030880970308E07E0120D4
S31508004140F369FFEF38B5C36804461BB103685868BE
S3150800415030F068FB23684FF0FF30616800221B6867
S315080041601862186820F0010018601A605A609A6090
S315080041704D6988692B68184328608869496923EA64
S3150800418000030B60E26038BD0138F8B5304D040114
S315080041902B592E461A6810689168D369DF0727D508
S315080041A0CF0725D502F1200E4FF0010C13F0020FB0
S315080041B07746C2F820C03CD04FF0020E13F0040F29
S315080041C0C7F800E022D11F0701D5CF072CD48006F7
S315080041D005D5990603D52B1998680CF0F1FC3359C7
S315080041E01B681A68DB69120617D51B0616D4F8BDB4
S315080041F09F0704D5CF0720D45F07E8D4E3E75F0716
S31508004200E1D5C907E3D502F1200E774604223A60C4
S315080042101A07DCD508223A60D9E7F8BD2C44A0680D
S31508004220BDE8F8400CF096BC02F1200708223A6077
S31508004230CDE75F07C7D57746E8E702F120074FF0D5
S31508004240020E13F0040FC7F800E0DFD1BBE700BF8A
S31508004250E07E012003681B681868DA6910F08000A0
S3150800426004D012F0800001D001209962704700BF87
S3150800427003681B6818689968DA6970B4D50718D591
S31508004280CC0716D5012603F120051E6296072C4693
S315080042902DD502252560550719D4150701D5CC0754
S315080042A020D4810601D5960618D44FF0FF3070BC8D
S315080042B07047940704D5CE071DD45507F1D4ECE70B
S315080042C05407EAD5C907ECD503F120052C46042185
S315080042D016072160E5D508212160E2E7586A70BC17
S315080042E0C0B2704703F1200408212160D9E75407BA
S315080042F0D3D52C46EBE7022503F1200425605507A4
S31508004300E5D4CAE7036801291B6807D0022904D146
S315080043101A6842F020021A60704770471A6842F01D
S3150800432080021A60704700BF036801291B6807D01E
S31508004330022904D11A6822F020021A6070477047D1
S315080043401A6822F080021A60704700BF01390B4BC9
S3150800435001EB410153F8213003F11C0298621368FE
S315080043601B06FCD582B040F62C230193019B5A1EEE
S315080043700192002BFAD102B0704700BF5896030885
S315080043802DE9F04F441E6E4E002504EB4402E00072
S315080043909200011BB358324406EB0111D3F800C052
S315080043A0CF6A2CF0010CD1F83080D2F808E0C3F8B7
S315080043B000C01D605D609D603D688A6B48EA050C1B
S315080043C025EA0805096EC7F800C03D60BEF1000F72
S315080043D006D15C4F3D6805F0020545F001053D60D4
S315080043E0001B594CDFF85CC106EB0010D0F818909A
S315080043F0C669D9F80070D0F820803E43476A056C34
S31508004400C9F80060D8F800603743866AC8F80070B3
S31508004410D8F800703E43476CC8F80060166806EA8C
S315080044200508856C48EA07071760976807EA0506CE
S31508004430C56C476D2E43056D966056682E40856D92
S315080044403743C66E5760D7682F40C56D2F43856EB4
S31508004450D7600F682F403E430E608E68476F056F22
S315080044602E40856F37438F604E6890F83C7006EA99
S315080044700508C56F48EA0506D0F880504FEAD70800
S3150800448007F007074E60D66808F10808BF0006EA75
S315080044900509D0F8845049EA05060F2590F8649076
S315080044A0D66005FA07FA52F828B090F834604FEA51
S315080044B0D9002BEA0A0A09F0070906FA07F70830AD
S315080044C04FEA89094AEA070742F8287005FA09F700
S315080044D051F8205006FA09F225EA0705154341F86E
S315080044E020505A6822F440525A601A68144044F020
S315080044F00C041C609A6822F430629A60DCF800208A
S3150800450022FA0EF202F00302022A16D0032A12D069
S31508004510012A0DD0BEF10A0F14BF4FF4D9724FF419
S315080045205972DA601A6842F001021A60BDE8F08F23
S315080045304FF4D962F5E70022F3E78A22F1E700BFD4
S315080045405896030890380240F369FFEFEFF3148397
S315080045509B0724D470B5234C2368002B3ED1002832
S3150800456039DD214B1B68984235DC0138EFF311839E
S315080045705A1E0F2A02D9102282F311881B4D0126D2
S315080045802B6026601A4B03EB40131A7B52B96FF067
S315080045902800002323602B6883F3118870BD6FF011
S315080045A018007047D1070BD402F0040101F0FF0090
S315080045B011B16FF02A00ECE742F004021A73E8E73B
S315080045C0042218461A732EF019FB0028E1D0094B6D
S315080045D000201E60DDE76FF0110070BD6FF0180057
S315080045E070BD00BF8087012014EE04087C87012077
S315080045F05C86012088870120F0B5EFF314839B07BA
S3150800460002D46FF01800F0BD314B1A68002AF8D1B1
S31508004610002847DD2F4A126890422EDC01382E4AC0
S3150800462002EB4010EFF31182541E0F2C02D910240E
S3150800463084F31188294D01262A601E6000228468A9
S315080046404A60427B276902EB060E62698F614A61FE
S31508004650C1F808E0027BD70712D5214A12689042B2
S3150800466031D002220A60C269CA6082690A610020E2
S3150800467018602B6883F31188F0BD6FF01100F0BD48
S31508004680960713D554074CBF0C24042412F078025D
S315080046900C6015D0082A18D0102A0CBF20224022F8
S315080046A04A60E0E7E9D10E4A1068BBE7520702D52F
S315080046B008220A60D7E7A4681022CC600A60D4E70B
S315080046C002224A60CFE70E60CDE701224A60CAE7B8
S315080046D08087012014EE04085C8601207C8701206F
S315080046E018880120084A0949936C0968072B94BF62
S315080046F002EBC30302F1400301B1704758689164A5
S3150800470002305860704700BFE438002084870120D3
S3150800471070B42049204B214C0D681B68246803EBB4
S3150800472083020E681E4B61014FEA4202A3EB0503A2
S3150800473029D51B491546891B8B4224D8194C03EBEE
S315080047408303194AA16CC3F35913E66C0729A2FB24
S31508004750032394BF04EBC10104F1400105EB931355
S31508004760104D4A68921B1A444A6078B10F4AE364AE
S31508004770801A4011013055F83020A864013245F8F6
S31508004780302070BC7047A2F10A05D7E7A864E36435
S3150800479070BC704718E000E02888012004ED00E0AE
S315080047A0400D0300E4380020632D3E055C86012099
S315080047B02DE9F84F074604302FF0E8FDEFF3118393
S315080047C05A1E0F2A02D9102282F31188DFF89C900C
S315080047D00122DFF89CA0C9F80030CAF80020214A57
S315080047E0214E1268316D7B68002A396033652DDBEE
S315080047F000239046394632469E460FE003C89C463B
S3150800480085E80300013346F804E02946C2F804E0C7
S31508004810984502F108021BDB082B19DCDC00052B86
S3150800482001F108054FF0050C06EB0400E6DD3869D2
S3150800483001F1080556F83310DC0001EB000B51684E
S315080048407869C7F810B008447861DBE74FF0000CC8
S315080048500023CAF80030D9F8003083F3118860467F
S31508004860BDE8F88F14EE0408E43800207C870120A0
S3150800487080870120032803D8024B03EBC00070474A
S315080048800020704738390020244BF0B5161889B037
S3150800489003F120055C68844203D3B44201D21F7831
S315080048A027B908339D42F5D109B0F0BD0D461C491C
S315080048B003460E68EFF3148189071DD519490C685C
S315080048C0D4B11949022A4FF0010EA4EB01044FEAAC
S315080048D0641404F101041ED0042A1AD0134A694646
S315080048E038460396049405930695CDF800E002929F
S315080048F00BF0B6FD09B0F0BD0D4A012469463846ED
S31508004900039604930595009402920BF0A9FD09B04D
S31508004910F0BD084AE3E7084AE1E700BF3839002056
S3150800492028880120188801205C8601203898030809
S3150800493090970308C897030800980308244BF0B516
S31508004940161889B003F120055C68844203D3B44283
S3150800495001D21F7827B908339D42F5D109B0F0BDB9
S315080049600D461C4903460E68EFF3148189071DD5C9
S3150800497019490C68D4B11949022A4FF0010EA4EB63
S3150800498001044FEA641404F101041ED0042A1AD063
S31508004990134A694638460396049405930695CDF856
S315080049A000E002920BF05CFD09B0F0BD0D4A01244F
S315080049B069463846039604930595009402920BF0CF
S315080049C04FFD09B0F0BD084AE3E7084AE1E700BF32
S315080049D03839002028880120188801205C860120A3
S315080049E01899030870980308A8980308E09803081C
S315080049F010B50C4C206805280ED02EF083FD2468CF
S31508004A00FEF7F4FF02462146074801F015FE64202A
S31508004A102EF02EFD002010BD044801F041FB0020B9
S31508004A2010BD00BF58390020089F0308E89E0308F8
S31508004A3010B50C4C206805280ED02EF0BBFD246856
S31508004A40FEF7D4FF02462146074801F0F5FD64202B
S31508004A502EF00EFD002010BD044801F021FB0020B9
S31508004A6010BD00BF58390020309F0308E89E030890
S31508004A7010B50C4C206805280ED02EF041FE24688F
S31508004A80FEF7B4FF02462146074801F0D5FD64202B
S31508004A902EF0EEFC002010BD044801F001FB0020BA
S31508004AA010BD00BF58390020589F0308E89E030828
S31508004AB010B50C4C206805280ED02EF0BDFD2468D4
S31508004AC0FEF794FF02462146074801F0B5FD64202B
S31508004AD02EF0CEFC002010BD044801F0E1FA0020BB
S31508004AE010BD00BF58390020809F0308E89E0308C0
S31508004AF010B50C4C206805280ED02EF09DFA2468B7
S31508004B00FEF774FF02462146074801F095FD64202A
S31508004B102EF0AEFC002010BD044801F0C1FA0020BA
S31508004B2010BD00BF58390020A89F0308E89E030857
S31508004B3010B50C4C206805280ED02EF0DFF9246835
S31508004B40FEF754FF02462146074801F075FD64202A
S31508004B502EF08EFC002010BD044801F0A1FA0020BA
S31508004B6010BD00BF58390020D09F0308E89E0308EF
S31508004B70F0B50138013915E011F8013F13F0DF0FE0
S31508004B80A3F16106A3F1200E14D02C2B12D0192EF6
S31508004B9098BF5FFA8EF3192D98BFFCB29C420BD1D1
S31508004BA0012A0BD010F8014FA4F16105A4F12007E2
S31508004BB0002CE1D10120F0BD0020F0BD1046F0BD6B
S31508004BC0F8B505460E4600241B4F002D30DD31682A
S31508004BD00B7813BB01341837052CF6D1174B5C68D4
S31508004BE014B918E02468B4B1002D0EDD31680B78CD
S31508004BF0002BF7D00022A068FFF7BAFF0028F1D0F3
S31508004C00206901F019FD0520F8BD206901F014FDA1
S31508004C102468002CE8D10020F8BD0022B868FFF708
S31508004C20A7FF0028D6D0386901F006FD2046F8BD52
S31508004C30386901F001FDCDE750990308583900207D
S31508004C402DE9F0410023184E80461D46374603607D
S31508004C5009E0082C20D07F2C1ED00A2C14D00D2C4D
S31508004C6012D0012C10D0B06801F0E6F9C4B21F2C9E
S31508004C70EFD94F2D2046ECDC01F02CFA7B190A2CD3
S31508004C8005F101051C73EAD12E440023204633732F
S31508004C90C8F80050BDE8F0810448002DDDD0013D7C
S31508004CA001F0CAFCD9E700BF58390020C8990308A3
S31508004CB0F8B5254E0346306805283FD0012B3ADD66
S31508004CC049680C7814F0DF0F35D004F0FD032C2B5F
S31508004CD031D0A4F10905B5FA85F56D0945B12AE083
S31508004CE0E3B205EB850511F8014F03EB45058CB1D9
S31508004CF0A4F13003A4F14102DBB2092BF1D9A4F1E6
S31508004D005703192AA4F16107A4F13704DBB2E7D9DE
S31508004D10192FE6D929462EF007FA3468FEF766FEFB
S31508004D202A4603462146094801F086FC64202EF0EF
S31508004D309FFB0020F8BD4FF0FF30F8BD044801F096
S31508004D40AFF90020F8BD00BF58390020F89F0308C6
S31508004D50E89E03080128F8B557DD4D682A7812F051
S31508004D60DF0F52D002F0FD032C2B4ED0A2F109041E
S31508004D70B4FA84F4640944B147E0D3B204EB84047A
S31508004D8015F8012F03EB44048AB1A2F13003A2F10E
S31508004D904106DBB2092BF1D9A2F15703192EA2F16C
S31508004DA06107A2F13702DBB2E7D9192FE6D9022843
S31508004DB02C4D2EDD8868017811F0DF0F29D001F01F
S31508004DC0FD032C2B25D0A1F10902B2FA82F2520971
S31508004DD042B11EE0CBB202EB820210F8011F03EBD0
S31508004DE04202B9B1A1F13003A1F14106DBB2092BA8
S31508004DF0F1D9A1F15703192EA1F16107A1F13701E4
S31508004E00DBB2E7D9192FE6D904E0164D02282C6E35
S31508004E10D0DC6A6E072C20D8072A20462C661FD8B5
S31508004E2011466A6601230131013003FA01F103FADA
S31508004E3000F0013901380BF0C5FB6A6E2B6E0A4982
S31508004E4002EB420203EB4303084801EB820201EB43
S31508004E50830101F0F1FB0020F8BD072A286EDFD98F
S31508004E60696EDFE758390020CC99030824A00308A7
S31508004E700128F0B583B03FDD05464868027812F090
S31508004E80DF045ED002F0FD032C2B35D0A2F1090415
S31508004E90B4FA84F4640944B12EE0D3B204EB840472
S31508004EA010F8012F03EB44048AB1A2F13003A2F1F2
S31508004EB04106DBB2092BF1D9A2F15703192EA2F14B
S31508004EC06107A2F13702DBB2E7D9192FE6D92046E6
S31508004ED00191FFF7CFFC0199002830D0022D32D17D
S31508004EE00378062B94BFDBB20023032D037058DC2E
S31508004EF041684160264601E0002403263E4F07E04C
S31508004F0001345B6807EB820201F096FBA64213D3D5
S31508004F102046FFF7AFFC2146034668B105783748B7
S31508004F2005EB4502002DEBD1214601345A68344879
S31508004F3001F082FBA642EBD2002003B0F0BD032CA1
S31508004F40FAD80326DAE78F683E7816F0DF0FC7D05F
S31508004F5006F0FD032C2BC3D0A6F10903B3FA83F39D
S31508004F605B094BB1BCE7F2B203EB830317F8016F99
S31508004F7002EB4303002EB4D0A6F13002A6F1410E8F
S31508004F80D2B2092AF0D9A6F15702BEF1190FA6F135
S31508004F90610CA6F13706D2B2E5D9BCF1190FE3D9EF
S31508004FA09FE70D692A7812F0DF0FA1D002F0FD0302
S31508004FB02C2B9DD0A2F10901B1FA81F1490939B129
S31508004FC096E7D3B215F8012F03EB0111002A90D00A
S31508004FD0A2F13003A2F14106DBB2092BF2D9A2F104
S31508004FE05703192EA2F16107A2F13702DBB2E8D9FD
S31508004FF0192FE7D97DE700BFCC99030844A0030819
S315080050005CA003082DE9F043072387B0B0F1000838
S315080050108946059340F34A810F680024B0483D78D5
S31508005020B04E3DB90134072C00F0408156F83400E3
S31508005030002DF7D000223946FFF79AFD0028F1D057
S31508005040A94B03EBC40494F8E060731E062B00F228
S315080050502D81DFE813F045024502DF0045027F0097
S3150800506042000700B8F1010F0FD0D9F80400027802
S3150800507012F0DF0F09D002F0FD032C2B05D0A2F1A8
S315080050800901B1FA81F1490971B1984B984A9A60B8
S31508005090002007B0BDE8F083D3B201EB810110F818
S315080050A0012F03EB41018AB1A2F13003A2F14104B9
S315080050B0DBB2092BF1D9A2F15703192CA2F161052C
S315080050C0A2F13702DBB2E7D9192DE6D9012940F05A
S315080050D01082864B874A9A60DAE7B8F1010F00F02A
S315080050E0D580D9F80400027812F0DF0F00F0CE80E0
S315080050F002F0FD032C2B00F0C980A2F10901B1FAD8
S3150800510081F1490941B1C1E0D3B201EB810110F83F
S31508005110012F03EB41018AB1A2F13003A2F1410448
S31508005120DBB2092BF1D9A2F15703192CA2F16105BB
S31508005130A2F13702DBB2E7D9192DE6D9002900F02A
S31508005140A5806D4B1B6801338B4240F29F80674BED
S3150800515019609DE7B8F1010F00F09F80D9F8041097
S315080051600A7812F0DF0F00F0988002F0FD032C2B6E
S3150800517000F09380A2F10904B4FA84F4640944B1F6
S315080051808BE0D3B204EB840411F8012F03EB44043B
S315080051908AB1A2F13003A2F14100DBB2092BF1D9A1
S315080051A0A2F157031928A2F16105A2F13702DBB271
S315080051B0E7D9192DE6D9002C6FD0504D2968A142A0
S315080051C06DD04A4E0129736F08D0994206D0084619
S315080051D00BF0D4FA0028C0F29C81736F2046474C26
S315080051E00128286007D0984205D00BF077FA0028E6
S315080051F0C0F2988120684FF4A2610BF063FC002886
S31508005200C0F27E810121002302223D4801F014FAF2
S31508005210296844E0B8F1010F2ED0D9F804000278C5
S3150800522012F0DF0F28D002F0FD032C2B24D0A2F1B8
S315080052300901B1FA81F1490941B11DE0D3B201EB87
S31508005240810110F8012F03EB41018AB1A2F1300365
S31508005250A2F14104DBB2092BF1D9A2F15703192CAB
S31508005260A2F16105A2F13702DBB2E7D9192DE6D919
S315080052704B1E012B40F236811C4B1C6F21462148E0
S3150800528001F0DAF9002007B0BDE8F083174B0522D4
S3150800529000201A6007B0BDE8F083184B19681A4851
S315080052A001F0CAF9002007B0BDE8F0830F4D95F864
S315080052B06860B8F1010F40F31181D9F804100A7833
S315080052C012F0DF0F00F00A8102F0FD032C2B00F02C
S315080052D00581A2F10900B0FA80F04009E0B1FDE0CD
S315080052E07CA003082C9A0308509903085839002013
S315080052F0047F0120247F012014EE0408007F01208A
S31508005300649A0308DCA003089CA10308D3B211F829
S31508005310012F03EB00108AB1A2F13003A2F1410478
S31508005320DBB2092BF3D9A2F15703192CA2F16107B5
S31508005330A2F13702DBB2E9D9192FE8D90BF0D2FD71
S31508005340044685F8686021467B4801F075F995F8AA
S315080053506820022A66D0042A56D104A920460BF0F2
S31508005360C3FD002800F092800499744801F064F99E
S3150800537005A8FFF765FC2A7B12F0DF0F00F0A68070
S3150800538002F0FD032C2B00F0A180A2F10901B1FA6D
S3150800539081F14909002940F09980694805E0D3B2AE
S315080053A010F8012F03EB01118AB1A2F13003A2F123
S315080053B04106DBB2092BF3D9A2F15703192EA2F144
S315080053C06107A2F13702DBB2E9D9192FE8D995F8B6
S315080053D06860022E46D0042E30D106AF32462046EB
S315080053E047F8081D39460BF0C9FD324639462046AE
S315080053F00BF07AFD002864D00499524801F01CF994
S3150800540095F868301C449EE701220DF10D012046EF
S315080054100BF06AFD00283ED09DF80D104A4801F0B1
S315080054200BF9A5E70DF10E0120460BF05DFDB8B3AB
S31508005430BDF80E10454801F0FFF899E706AE0122BF
S31508005440204606F80B1D31460BF098FD3146012221
S3150800545020460BF049FD48B39DF80D103C4801F075
S31508005460EBF8CDE706AF3246204627F80A1D39463F
S315080054700BF084FD3246394620460BF035FDD0B197
S31508005480BDF80E10334801F0D7F8B9E74FF0FF33EF
S315080054901946049369E7FF2319468DF80D30BDE7D1
S315080054A04FF6FF731946ADF80E30C3E7FF231946CA
S315080054B08DF80D30D2E74FF6FF731946ADF80E306A
S315080054C0E0E74FF0FF331946049396E70A2000F009
S315080054D001FE0020EC6607B0BDE8F083E86E2DE714
S315080054E01D4DE6E61D480C4601F0A6F81A4B1C674A
S315080054F0C4E602297FF4C9AD174B194A9A60C7E575
S31508005500009040F29122174B03201749FEF74EFAF6
