S00B00006173702E73726563D5
S31508000000A0690020D101000841E9020841E9020877
S3150800001041E9020841E9020841E9020841E9020802
S3150800002041E9020841E9020841E90208B7EA02087B
S3150800003041E9020841E9020841E90208BFE9020864
S31508000040BFE90208BFE90208BFE90208BFE90208DA
S31508000050BFE90208BFE90208BFE90208BFE90208CA
S31508000060BFE90208BFE90208BFE90208BFE90208BA
S31508000070BFE90208BFE90208BFE90208BFE90208AA
S31508000080BFE90208BFE90208BFE90208BFE902089A
S31508000090BFE90208BFE90208BFE90208BFE902088A
S315080000A0BFE90208BFE90208BFE90208BFE902087A
S315080000B0BFE90208BFE90208BFE90208BFE902086A
S315080000C0BFE90208BFE90208BFE90208BFE902085A
S315080000D0BFE90208BFE90208BFE90208BFE902084A
S315080000E0BFE90208BFE90208BFE90208BFE902083A
S315080000F0BFE90208BFE90208BFE90208BFE902082A
S31508000100BFE90208BFE90208BFE90208BFE9020819
S31508000110BFE90208BFE90208BFE90208BFE9020809
S31508000120BFE90208BFE90208BFE90208BFE90208F9
S31508000130BFE90208BFE90208BFE90208BFE90208E9
S31508000140BFE90208BFE90208BFE90208BFE90208D9
S31508000150BFE90208BFE90208BFE90208BFE90208C9
S31508000160BFE90208BFE90208BFE90208BFE90208B9
S31508000170BFE90208BFE90208BFE90208BFE90208A9
S31508000180BFE90208BFE90208BFE90208BFE9020899
S31508000190BFE90208BFE90208BFE90208BFE9020889
S315080001A0BFE90208BFE90208BFE90208BFE9020879
S315080001B0BFE90208BFE90208BFE90208BFE9020869
S315080001C0BFE90208BFE90208BFE90208000000000B
S315080001D071B64FF0000080F31488BFF36F8F18488C
S315080001E0016881F3088817484FF47001026842EAEB
S315080001F0010202604FF0404013490860134800B1FD
S3150800020080474FF000001249124A914204D2086012
S3150800021001F104019142FAD30F49104A914208D2DA
S315080002200F4B0868186001F1040103F104039142B9
S31508000230F7D30C4800B180472EF06AFEFEE70000AF
S31508000240ACB1040888ED00E034EF00E07136000830
S3150800025040050020E0320120508305088088050803
S315080002600000002000000000F0B5012389B00E460A
S31508000270164CF9B1817822688B401343236000231A
S3150800028022681A41D2071CD40133042BF8D1104A2C
S31508000290276801250F4B69460390052002930592AE
S315080002A00696049700950EF0A1FF02236560A360E9
S315080002B009B0F0BD817822688B4022EA03032360E7
S315080002C0DDE73033024A1370E2E700BF400500203D
S315080002D000000020585703088B688BB1052070B5BD
S315080002E088B05E6891F88E520124064B69460396DB
S315080002F004950592009402930EF078FF08B070BD3D
S31508000300704700BF7C57030830B58BB001A810F0C2
S31508000310A9FC0698059BA0F10A0402995A050398B8
S315080003204901049D02EB4463019A01EBC021002AAE
S3150800033003EB0543B8BF013201EB620018440BB06A
S3150800034030BD00BF2DE9F04FDFF8F8B185B0824621
S3150800035002910BF059FFDBF80C3013F4006602D05B
S3150800036005B0BDE8F08F04464FF0FF300CF04AF8B0
S31508000370A4080BF03DFF4FF6FE731B1B184485B20D
S315080003800BF042FF0121831E2A4608469BB20CF059
S315080003901DFE4FF07F400CF035F84FF0FF300CF0A3
S315080003A049F85E480CF05EF8DAF80C30002B00F0DD
S315080003B0AC800BF110086FF003030AF1200508273B
S315080003C01B1BC14603930BF01FFF1E38B84268D9A2
S315080003D0029BB34200F090804FF07F400CF012F879
S315080003E04FF0FF300CF026F84FF4827220214C486B
S315080003F0013631F0FDFA0BF0FBFE039B4FF0000EC1
S3150800040032461844474B4849A3FB00342B46C4EBF5
S31508000410000C434804EB5C04A4080BEB040C8CF8B2
S3150800042010E005F0EBFD284631F0AAFBC31C9C4200
S315080004300BDD831C611E20204B44494413F8012F11
S315080004401F2A98BF18708B42F8D135F8083CA4F1DA
S3150800045016005A0A132A3DD9143A03F01F014044DC
S31508000460C3F343130D3C0091304905F0C7FD15F859
S31508000470023CDA0638D41B072ED52D4B08EB0402AE
S3150800048003CB48F8040051600323B9B2244A052077
S315080004900CF0EAF8DAF80C3005F586750F37B34232
S315080004A091D84FF07F400BF0ADFF4FF0FF300BF0C7
S315080004B0C1FFDAF80430DAF808201E49184805F0B2
S315080004C09DFD0323B9B2164A052005B0BDE8F04FD5
S315080004D00CF0CAB85032C0E708EB040055F80C2CEB
S315080004E0154905F08BFDCFE7144B08EB040203CB47
S315080004F048F804005160C7E74FF0FF300BF082FF61
S315080005004FF07F400BF096FF6EE703230C4A082155
S31508000510052005B0BDE8F04F0CF0A6B85C00002039
S315080005205005002025499224A0570308AC57030814
S31508000530C4570308CC5703088CC40408BC570308DF
S31508000540945703084005002070B584688AB005688A
S315080005501CB1012C19D00AB070BD436A0121154A95
S315080005605C016D685268A4B2036AD2B22846009448
S3150800057002F082F90122104B02A905900520029289
S3150800058004930EF033FE0AB070BDAB6A2A6AE968B6
S31508000590686802F0E7F9EE682A6A02A9074B05902F
S315080005A0052006960792029404930EF01FFE0AB0E1
S315080005B070BD00BF00000020F0570308105803085C
S315080005C0354B20392DE9F04FDD8889B09C882F46B8
S315080005D004952646E51D03941C683B4603FB01F378
S315080005E0E91035460191019EC5EBC60106FB03F3EA
S315080005F0C9B20591002F3DD0914602330022322719
S3150800060004EB030B4FF0010A02926A1E079006924A
S31508000610019B012B31D0022B32D11BF8026C1BF83F
S31508000620013C43EA0626039BD3B1069B059A079C21
S315080006309D18039BC3EB05080AFA05F34846013DD6
S31508000640334208BF4FF0FF300BF0DCFE062320468E
S3150800065039461A4606340CF0B9FCA845A4B2EBD1C3
S31508000660029B0637019A0133BFB29344049A029358
S315080006709342CDD109B0BDE8F08F1BF8026CD2E7E2
S315080006801BF8013C1BF8026C1B029BF8002043EA8E
S31508000690064343EA0206C6E74C000020F0B40024ED
S315080006A0451E234606E02E2A08BF1C460133B3F52D
S315080006B0807F03D015F8012F002AF4D104B3621CF9
S315080006C0FF2A1ADC835CF3B10D78F5B18618C4F1FC
S315080006D0FF00002407E0844210D016F8013F7BB1E2
S315080006E011F8015F65B1A3F16102A3F12007013496
S315080006F0192A98BFFBB2AB42EDD00020F0BC704778
S315080007002046F0BC70471846F8E72846F6E700BFCB
S315080007102DE9F04F8FB0564F814600240EAB8DF869
S31508000720084043F8347D184609F000FAC9F80C4029
S31508000730C9F80000C9F81040C9F80440C9F80840CB
S3150800074009F018FA002800F084800388064603F4A6
S31508000750C073B3F5807F7CD1836A002B79D01B6880
S31508000760002B76D0384698470546002876D03B7841
S31508000770002B46D0B8463F4F09E0E377D9F810304A
S315080007800133C9F810300AF10103C9F80C30B36A0D
S315080007904FF48674384928469B68984722460028AD
S315080007A03FD097F820313448002B3AD0D9F80C308E
S315080007B004FB0391FF2B01F1140132D801F0BEFCB2
S315080007C0D9F80CA001232D4904FB0AF409EB040B04
S315080007D05C460BF1200BE3775846FFF75FFF0323D0
S315080007E027490028C9D15846FFF758FF0523254948
S315080007F028B95846FFF752FF09230028C3D0E377E4
S31508000800C1E7D9F800203A202F218DF80B30303275
S315080008108DF809008DF80A100DF108088DF80820E2
S31508000820A9E7B36A28465B689847B36A5B6A63B107
S31508000830404606A9984740B9079A099BC9F8042073
S31508000840C9F808300FB0BDE8F08F00200FB0BDE83A
S31508000850F08F4FF0FF300FB0BDE8F08F01220A4B42
S3150800086006A90320069208930EF0C0FC2846E9E77D
S315080008700000002040050020540600204C580308BC
S3150800088050580308545803085858030800B589B047
S315080008900122054B05206946009202930EF0A6FC3C
S315080008A009B05DF804FB00BF685803082DE9F04F4E
S315080008B00121B9B004467F200EF04AFD0028C1F296
S315080008C039822246A149052002F0BEFC01200EF01D
S315080008D0CBFD041EC1F2CA814FF4A26101200EF0BD
S315080008E0B7FF0028C1F21C820124994B24A90520D0
S315080008F0269324940EF07AFC0BF032FC4FF040411C
S315080009002046944F0BF0A4FC20460BF027FD924896
S315080009100BF0A8FD4FF07F400BF000FE4FF0FF30C4
S315080009200BF070FDDFF864B20BF062FC05460BF0C5
S315080009306BFCA0F15003A5F1780228219BB23C205C
S3150800094092B20CF043FB85480BF05CFD4FF0FF308C
S315080009500BF070FD80480BF085FD0BF055FC20FA76
S3150800096004F123467E4A3C39002089B20BF07CFE0E
S315080009707C480BF077FD4FF07F400BF043FD0BF002
S3150800098043FC20FA04F12346774A1439002089B239
S315080009900BF06AFE0BF038FC2346C0F34F01734A8E
S315080009A000200BF061FE0BF023FC05460BF02CFC37
S315080009B020FA04F1E5406E4A143105F128000CF0DE
S315080009C07DFA6C4B24A90520269324940EF00EFC80
S315080009D0002009F0CFF8684B684A07615A600BF0A7
S315080009E007FC0E900BF010FC0F90654815F040FEC2
S315080009F005466448CBF8205215F03AFE624A03468B
S31508000A0024A90520CBF824322893269227952494E6
S31508000A100EF0ECFB0BF0ECFB05460BF0F5FB81B298
S31508000A20A8B20CF063FC0346002841F01581574C28
S31508000A3004F50A7010F016F9DBF83C321E2B01F0AB
S31508000A4049810025012404230B2218A902201993A1
S31508000A501A9222951F951E951B95219518941C94FC
S31508000A601D94239412F05AFF8046AC2015F000FE20
S31508000A702A4647490646C0F88C800AF0C9F8204637
S31508000A8009F078F803463046404D9E611F610AF02A
S31508000A9031F9404B24A927900520269324940EF07B
S31508000AA0A5FB022001F0E2FFCBF84C0207202EF04E
S31508000AB033FCDBF80830022B01F018814FF07F4039
S31508000AC00BF02CFDDBF82032304ADB68002B41F0B6
S31508000AD0178040F20F13D360DFF8B0A0DBF80430BC
S31508000AE02A4AB3F5817F00F37E83DAF80830022BB1
S31508000AF000F07087284B0025284E18786FF063039E
S31508000B00CBF804501C464FF0FF333038039309F0F6
S31508000B1031F8DBF82032069005930BF075FBC0F32D
S31508000B208F0301220795194618460493A6FB01135D
S31508000B3001469040CBF80820D340641A41180B9020
S31508000B4093400D940C9109934EE000BFC0580308DA
S31508000B5054590308690200084C000020FF0000FFF2
S31508000B60685903085C0000207C590308A859030843
S31508000B70A0250308D45903088C2F0120090300086F
S31508000B80140C010036001000E45903084005002043
S31508000B90D9020008185A030800000020ABAAAAAA1E
S31508000BA0DBF80C3013F480746CD1DAF80C30980545
S31508000BB004D5DAF80830012B00F0B784DBF80C30DE
S31508000BC0590500F1C781CD480CF0FAFB9BF8545241
S31508000BD0002D40F08281C820C94C2EF0EFFFDBF8CB
S31508000BE00430002B40F07B82DBF80C301905D7D493
S31508000BF0C44810F037F8C44ADAF82832127A9A420A
S31508000C00CED0C14A13720BF0FFFA84080BF0F0FA43
S31508000C10461CBE480BF026FCDAF80C30361BDA0701
S31508000C2000F13F84DBF80C30671C980700F1FB8362
S31508000C30DBF80C302744590700F1BC83DBF80C308D
S31508000C401B07ADD5B24827440BF0DCFBA31EB9B28F
S31508000C509BB2B0B21A460CF0B9F94FF0FF300BF060
S31508000C60D1FBAB480BF0E6FBB91C06F110000323D9
S31508000C7089B2A84A80B20BF0F7FCDBF80C3013F403
S31508000C80807492D00BF0C0FADAF80C3081461C0555
S31508000C9099D49C480FF0E6FF9B4B5A7ADAF828322B
S31508000CA09A4202D1039B01338DD04FEA99034FF044
S31508000CB0FF301C4608930BF0A5FB0BF099FA4FF68C
S31508000CC0FE731B1B184484B20BF09EFA0121831E87
S31508000CD0224608469BB20CF079F98F480BF0C2FB06
S31508000CE04FF07F400BF08EFB4FF0FF300BF0A2FB6E
S31508000CF0039BDBF83022032B00F0DD848749884804
S31508000D0005F07CF99BF81010002900F0B0864FF02A
S31508000D107F47834EB04614247F4EA0B23A46FFF76B
S31508000D204FFCB38818F8011F023B03EB430304EB9F
S31508000D3043040029F1D1A6B20A344FF07F400BF0E4
S31508000D4061FB0C235A2130461A460CF03FF90C2356
S31508000D50304682211A460CF039F9039BDBF82C221F
S31508000D60042B00F092846D496D4805F047F99BF80D
S31508000D7010709FB14FF07F48694EB1463946664EAE
S31508000D80A0B24246FFF71CFCB38819F8011F023BC4
S31508000D9003EB430304EB43040029F1D10BF028FAD3
S31508000DA06FF03104089BE41A04444FF07F400BF0BF
S31508000DB029FB4FF0FF300BF03DFB039B052B00F0A2
S31508000DC01A85DBF828225549554805F017F90323F3
S31508000DD0534A1421A0B20BF047FC4FF07F400BF0AA
S31508000DE011FB4FF0FF300BF025FB039B002B00F0A7
S31508000DF0AF83DBF83C2200244A4902F2B272484823
S31508000E0005F0FCF80323464AC82164200BF02CFCA5
S31508000E104FF07F400BF0F6FA4FF0FF300BF00AFB6D
S31508000E202F2003233E4A8BF81000C821A8208BF8F0
S31508000E3011400BF019FC039B012B00F03985DBF8F8
S31508000E40382200243549364805F0D8F80323344AB1
S31508000E50C821B9200BF008FC4FF07F400BF0D2FAFE
S31508000E604FF0FF300BF0E6FA2F2003232C4A8BF8BD
S31508000E701000C821DB208BF811400BF0F5FB039B13
S31508000E80022B00F0EB84DBF834222449244805F0D1
S31508000E90B5F80323224AC821EC200BF0E5FB4FF0F6
S31508000EA07F400BF0AFFA4FF0FF300BF0C3FADBF8D8
S31508000EB02832154A5372039B002BFFF684AE002D89
S31508000EC03FF481AE0F480FF0DFFD0C480CF078FABE
S31508000ED09BF85452002D3FF47EAE134B0126BAF808
S31508000EE0564210A9BAF86072052012931395149405
S31508000EF0159710960EF07AF9039B17E094070020D1
S31508000F004005002068070020000000205C00002043
S31508000F10008000FF985A03084C000020A05A0308D6
S31508000F2050050020A85A0308B05A0308013300F0F8
S31508000F3029820BF05DF9049BC01A8442C0F0CA806E
S31508000F40BB42C0F0C780099B9F42ACBF4FF0FF353C
S31508000F50012540E60BF058F904460BF055F9DAF886
S31508000F600C301A053FF52FAEDAF85032002B3FF455
S31508000F702AAEA40847080BF03BF96FF00103A5B2A7
S31508000F801B1B1C184FF07F400BF03CFA0BF030F996
S31508000F904FF6FE735B1B184486B20BF035F9012138
S31508000FA0831E324608469BB20CF010F8BA480BF07E
S31508000FB029FA0BF01DF94FF6B0735B1B184485B27E
S31508000FC00BF022F92821A0F150032A4608469BB2C5
S31508000FD00BF0FCFFDAF80C305B0300F19B84002C65
S31508000FE0BFB2B8BF01346310089307F119039BB267
S31508000FF00A93089D4FF07F400BF004FA07F10109A8
S3150800100005F128000F220A9905F13C0480B205F182
S3150800101082080CF02BF800251FFA89F901E0A04593
S315080010201DD0A6B24FF07F400BF0ECF932233046C4
S315080010300622394607340BF0C9FF984B5B68AB426A
S3150800104005F10A05EBDD94480BF0DCF9701C30233A
S31508001050052280B249460BF0B9FFA045E1D14FF011
S315080010607F400BF0CFF9089C0A9D0F22933429463E
S31508001070A4B220460BF0FAFF87480BF0C3F92046C6
S3150800108029460C220BF0F2FF0023CBF850329AE5E2
S31508001090DAF80C30990540F1CF82072F40F2CC825E
S315080010A0079BDA0740F1C882A7F108057C4B05982B
S315080010B083FB0513E917C2681D44C1EBE505954294
S315080010C008D24FF4867303FB0503DB7F13F00E0F7C
S315080010D040F0E4854FF0FF33002503937BE5C820F5
S315080010E02EF06CFD069B1A8802F080039BB2002B3B
S315080010F07FF4F4ACD0057FF5F1AC6268012A7FF77E
S31508001100EDAC6268022A00F0EC846368C82742F2F4
S315080011101078D4F82022DC1E3B46474698464FF402
S315080011208675661C05FB04F55319DB7F13F00C0F57
S3150800113003D042F210718F4272D09B0703D4344613
S31508001140DBF82022EBE7574B012510A9052012935F
S315080011501397013F10950EF049F8DBF80C304F490C
S3150800116043F400635048CBF80C3030F08FFC4E48FF
S3150800117030F006FD4FF48673DBF820124A4A03FB6B
S3150800118004111044203130F081FCDBF824124FF4AE
S3150800119080124548273101F001F80346002840F03F
S315080011A09580424B10A90320109512930EF01EF855
S315080011B0DAF8240215F08EFADAF80C3023F4006314
S315080011C0CAF80C30002FBAD10122394B10A90520D4
S315080011D0109212930EF00AF8DBF80430354AB3F58C
S315080011E0817F7FF782ACD2F8240215F073FA324970
S315080011F0052002F029F82DF09BFE0028C0F2448550
S3150800120040F20A422D4B02252D4C10A900201095BC
S315080012101294139214930DF0E9FF39B0BDE8F08FDC
S31508001220DBF80C305903CFD41F4C1C4920460392D7
S3150800123030F02CFC204630F0A3FC039A20445119C8
S31508001240203130F023FC24A9204608F0F7FF0028B7
S31508001250BAD12046DAF84C421A4908F02BFF6061E9
S315080012600028B1D0319B0124DAF84C0210A9164A9D
S31508001270836105201393129210940DF0B7FFDAF8E4
S31508001280203220461D44EB7F5A074CBF10212021EF
S315080012902EF0E2FE98E700BF0000FFFF00000020E6
S315080012A089888888F05A030850050020045B0308DB
S315080012B0685B030840050020405B0308645B03087D
S315080012C0B0580308D05A0308D45A0308C94A10A9C3
S315080012D005201393129210950DF088FF0FAA0EA9F8
S315080012E0DAF8240200F0F8FFC34C0E9A10A90F9BF7
S315080012F01590052013921493129410950DF076FF0D
S315080013004FF07F400BF00AF90AF072FF0E9BC01AE5
S3150800131044080AF079FF0F99DAF82422411A204680
S3150800132049080BF0CBFD0AF06FFF0F9B9842C0F0FF
S31508001330F0800024B14D013405F515700CF040F825
S315080013409BF85432642083B92EF038FC4445F1D119
S31508001350EB684FF07F4023F40063EB600BF0DEF898
S315080013605FB1C8202EF02AFCE9E6EB684FF07F4013
S3150800137023F40063EB600BF0D1F84FF416702EF0EF
S315080013801DFC21E70AF034FF049BC01A84427FF64D
S315080013907FAEBB4240F20382DAF80C30002523F414
S315080013A0C063CAF80C30DAF80C3043F48073CAF814
S315080013B00C3010E4924806F104080BF023F8A31E3B
S315080013C0B9B207F102099BB2B0B21A461FFA88F8F9
S315080013D00BF0FCFD4FF0FF300BF014F888480BF0CB
S315080013E029F808F10C001FFA89F90323854A80B207
S315080013F049460BF039F9DAF80C305A037FF51EAC7A
S31508001400DAF84C3209F1140108F108001B6889B2B0
S3150800141080B213F0100F4FF0030314BF7A4A7B4AC9
S315080014200BF022F90AE47A4806F104090AF0EAFF01
S31508001430A31EB9B204F103089BB2B0B21A461FFA4A
S3150800144089F90BF0C3FD4FF0FF300AF0DBFF704857
S315080014500AF0F0FF09F10C001FFA88F803236D4A19
S3150800146080B241460BF000F9059B186808F082FB2C
S31508001470059BDB68002B00F03381002800F03081E3
S31508001480038803F080039BB2002B00F0338108F138
S31508001490280148460323604A89B20BF0E5F8FFF7AE
S315080014A0C7BB5E48371D0AF0ADFFA31E0121B0B2C7
S315080014B09BB2BFB21A460BF089FD4FF0FF300AF017
S315080014C0A1FF56480AF0B6FF032307F10C00544A59
S315080014D0194680B20BF0C8F8DAF80C30DB0540F193
S315080014E03981039B01333FF49DAB07EB5407032374
S315080014F04C4A1721BFB2F81F80B20BF0B5F8A7F116
S315080015000E000323484A80B22B210BF0ADF8FFF7F3
S3150800151089BBDAF824520AF077FEDAF82442A8756D
S315080015200AF072FE000AE07503E74FF0FF310598EE
S31508001530FEF708FF069BCAF808401B8803F4C07329
S31508001540B3F5807F079B08BF01230793FFF73BBBD3
S315080015504FF0FF300AF056FF4FF07F400AF06AFF5F
S31508001560002DDAF83C2240F36782812A02DC013238
S31508001570CAF83C2202F2B2722C492D482F2604F0F2
S315080015803DFD002403232A4AC82164200BF06CF889
S315080015904FF07F400AF036FF4FF0FF300AF04AFF5F
S315080015A00323234AC821A8208BF810608BF8114022
S315080015B00BF05AF8DBF838221E491D4804F01EFDC8
S315080015C003231B4AC821B9200BF04EF84FF07F4081
S315080015D00AF018FF4FF0FF300AF02CFF0323144AD5
S315080015E0C821DB208BF810608BF811400BF03CF813
S315080015F049E400BF205B0308305B03084005002070
S315080016000000FFFF805A0308885A0308905A030807
S31508001610800000FF645A030850BD0408FF0000FF5D
S31508001620345A0308A4C204085C5A0308A85A0308D3
S3150800163050050020A05A0308DBF80C305B0503D5DB
S315080016400B9B9F4200F37182DBF80C30DD057FF5BA
S3150800165041AD0AF0CDFD049BC01A8442BFF43AADF1
S31508001660E52F3FF637ADC82F40F22583A72C40F269
S315080016708F83DA2C40F29183B4F5877FBFF42AADC5
S31508001680022300250393FFF7A6BA002D40F3DD8158
S315080016903A2A02DC0132CAF82C22D34ED349304604
S315080016A004F0ACFC9BF81070002F00F08F82DFF876
S315080016B04083FFF762BB002D40F3D0813A2A02DC53
S315080016C00132CAF83022C84EC849304604F096FCA2
S315080016D09BF81010002900F05982C54FFFF71ABB76
S315080016E008F1280148460323C24A89B20AF0BCFF1A
S315080016F0FFF79EBA059A4FF05B0E04F117013A20E0
S315080017008AF810E04FF02F08D2F800C04FF05D0EAF
S315080017108AF8153089B20CF1300C8AF812000323C6
S315080017204846B14A8AF811C08AF814E08AF8138044
S315080017300AF09AFF059AB049D268AB4804F05EFCF5
S3150800174004F126014846032389B2A74A0AF08CFF0A
S31508001750FFF76EBADAF83402DAF83C22DAF83832E9
S3150800176000901E3AA549A04804F048FC38460323D1
S315080017709D4A17210AF078FFDAF82802DAF82C329F
S31508001780DAF8302200909E49974804F037FC38462C
S315080017900323954A26210AF067FFFFF743BA0B9BF6
S315080017A09F4280F23581DAF80C30964A23F4A0631A
S315080017B01278CAF80C30DAF80C30303A43F4007371
S315080017C0CAF80C300ED1DAF800309C070DD5022184
S315080017D0312315468B4ACAF808101370CAF80460F4
S315080017E0FFF7F9B9012A00F0908101230025CBF80B
S315080017F00830FFF7F0B94FF0FF300AF003FE4FF05C
S315080018007F400AF017FE002DDBF8282240F3A1815D
S315080018103A2A02DC0132CAF8282274492F2672486D
S3150800182004F0ECFB0323704A1421A0B200240AF04A
S315080018301BFF4FF07F400AF0E5FD4FF0FF300AF03E
S31508001840F9FDDBF83C22704902F2B272664804F0F0
S31508001850D5FB0323644AC821642097E64FF0FF307E
S315080018600AF0D0FD4FF07F400AF0E4FDA54240F3B0
S315080018708281DAF834221E2A02DC0132CAF83422BE
S315080018805A49594804F0BAFB0323574AC821EC20A1
S315080018900AF0EAFE4FF07F400AF0B4FD4FF0FF3041
S315080018A00AF0C8FDDBF82832564A5372FFF70ABB1E
S315080018B04FF0FF300AF0A6FD4FF07F400AF0BAFD60
S315080018C0A542DAF8382240F34D810B2A02DC0132B0
S315080018D0CAF8382245490024434804F08FFB0323FD
S315080018E0414AC821B9200AF0BFFE4FF07F400AF0EE
S315080018F089FD4FF0FF300AF09DFD2F2003233A4A59
S315080019008BF81000C821DB208BF811400AF0ACFEDA
S31508001910FFF7B9BA002C4FF07F40BFB2B8BF013409
S31508001920BD1C6310ADB21C4608930AF06BFD32234A
S31508001930A4F1780639461A46143CB6B2A4B2304623
S315080019400BF044FB31480AF05DFD2E23B01C2946F6
S315080019501A4680B20BF03AFB4FF07F400AF052FD70
S31508001960DBF84C321B68DE0640F185803946204696
S31508001970322204F1240607F11A080AF011FF601C46
S31508001980B6B21FFA88F83946322280B20AF008FF42
S31508001990204639463246434607F131050AF028FF04
S315080019A007F11903791CADB29BB23246204689B2BB
S315080019B099460A930AF01CFF32464B4620462946AA
S315080019C00AF016FF43463246294620460AF010FF1B
S315080019D0FFF70FBBDAF82002FEF79AFE0123CAF8D2
S315080019E00830FFF787B800BF50050020A05A030843
S315080019F0FF0000FF6C5A0308785A03083C5A03088C
S31508001A004C5A030800000020A85A03080000FFFFEC
S31508001A100C9B9F425BDADAF80C30002523F44073FE
S31508001A20CAF80C30DAF80C3043F48063CAF80C3084
S31508001A30CAF85062FFF7CFB83FF49CAD1E2A7FF76D
S31508001A4099AD013ACAF83C2294E53FF426AE002A3D
S31508001A507FF723AE013ACAF82C221EE63FF433AECE
S31508001A60002A7FF730AE013ACAF830222BE61E2448
S31508001A701426FFF762B93223102239462046BDF8EC
S31508001A8020600BF0A3FAD3480AF0BCFCA01C2E2356
S31508001A900C22294680B20BF099FA4FF07F400AF0E3
S31508001AA0B1FC32231022394630460BF08FFAC9486A
S31508001AB00AF0A8FCB01C2E23294680B20C220BF093
S31508001AC085FA07F119039BB20A93FFF792BA079BA7
S31508001AD0002B3FF4FFAA02230025CAF80430FFF7BB
S31508001AE07AB8D4F82022D2F81080B8F1000F7FF720
S31508001AF06BAB64271C463B4647469846FFF70FBB29
S31508001B0040F20F23D360FEF7E7BFDAF80030D807B4
S31508001B107FF56BAE022130230025CAF80810CAF8F3
S31508001B200420AD4A1370FFF756B80AF061FB049B10
S31508001B30C01A430814339C4280F0DF80DAF80C3070
S31508001B405F0300F1018101230025CBF85032FFF72E
S31508001B5042B83FF462AE002A7FF75FAE013ACAF890
S31508001B6028225AE63FF4B6AE012A7FF7B3AE013A09
S31508001B70CAF83822AEE63FF486A9DAF83422012AF2
S31508001B807FF77EAE013ACAF8342279E64FF07F40F5
S31508001B900AF038FC0C235A2114201A460BF016FAC0
S31508001BA00C23822114201A460BF010FADAF82C229C
S31508001BB08A49304604F022FA9AF81070002F00F08D
S31508001BC01D814FF07F481E24FFF7D7B80AF010FB97
S31508001BD06FF03104089BE41A04444FF07F400AF082
S31508001BE011FC4FF0FF300AF025FCDAF828227B4971
S31508001BF0304604F003FA032332461421A0B22F24F8
S31508001C000AF032FD4FF07F400AF0FCFB4FF0FF3040
S31508001C100AF010FCDAF83C227149304602F2B27238
S31508001C2004F0ECF932460323C82164200AF01CFDAF
S31508001C304FF07F400AF0E6FB4FF0FF300AF0FAFB60
S31508001C4032460323C821A8208AF811708AF8104062
S31508001C500AF00AFDFFF7F3B8624A24A90320249480
S31508001C60279326920DF0C2FAFEF7E1BE63B2293336
S31508001C703EF432AE01F082FB5B4902462312032092
S31508001C8001F0E2FAFEF728BE009040F20942574BEF
S31508001C900320574901F052FBFFF7B2BA2946FEF76F
S31508001CA051FB4FF47A702DF089FFEB1C0025CAF81A
S31508001CB00430FEF790BF502F5ED90AF099FA049BBC
S31508001CC00025C01AB4EB500F2CBF0423032303933B
S31508001CD0FEF781BF2F230520C4F83C322DF06EFF96
S31508001CE004F50A700EF0D0FEFEF7ABBED5F820025A
S31508001CF0FEF70EFDAC60FEF7E1BE0AF079FA049B2A
S31508001D00C01A430850339C42334B5B682BD2092BCD
S31508001D107FF719AF304B304A5B680A3B536012E7CE
S31508001D20009040F26132334B0320314901F006FB43
S31508001D30FEF7DABD009040F251322F4B03202C49B2
S31508001D4001F0FCFAFEF7BDBD0AF052FA049BC01A70
S31508001D5043081E3B9C4225D2DAF84C22136843F00E
S31508001D6020031360EFE65A2B3FF7EDAE1A4B1A4ADB
S31508001D705B680A335360E6E60AF03AFA0D9B1844A4
S31508001D808442FFF4A7A9052300250393FEF723BF82
S31508001D90002303931D46FEF71EBF01230025039368
S31508001DA0FEF719BF0AF024FA049BC01A43083C330D
S31508001DB09C42BFF4C8AEDAF84C321A685868D606A0
S31508001DC041D500F019FEDAF84C22136823F0100307
S31508001DD01360B8E60000FFFF00000020A05A0308C1
S31508001DE0A85A0308085A0308E4580308585B030866
S31508001DF0B05803080C590308785803080AF0F8F98C
S31508001E00089A6FF031039B1A1C184FF07F400AF0AE
S31508001E10F9FA4FF0FF300AF00DFBDAF828220E49DE
S31508001E20304604F0EBF83246A0B2032314210AF038
S31508001E301BFC4FF07F400AF0E5FA4FF0FF300AF03E
S31508001E40F9FAFEF7D6BF00F0C3FDDAF84C2213689C
S31508001E5043F01003136076E6A05A0308F0B51A4F4C
S31508001E6095B01A4C01251A4E18E000F03BFED4F83E
S31508001E704C320021586800F0D3FDD4F84C3258692A
S31508001E8008F08AF9E36802A9052023F4802302955D
S31508001E900497E360C4F850520DF0A8F9012201AB8B
S31508001EA0302110462EF0B4F9E36801990AA843F4E4
S31508001EB08023D4F84C220B96E360CB060A92D4D43E
S31508001EC00AA800F04DFFD2E7745B0308400500201E
S31508001ED049050008C3695A689968914204D9501C93
S31508001EE019685860885C70474FF0FF30704700BF2C
S31508001EF070B4C6697368B0685C18A04211D33568B7
S31508001F00002908462B4409DD013A5D1813F8014BF0
S31508001F10AB4202F8014FF9D174680C44746070BC86
S31508001F207047002070BC7047C3695A689868904229
S31508001F3006D9186810B4541C5C6081545DF8044BCB
S31508001F40704700BF70B4C6697468B3686518AB4259
S31508001F5011D30029336808460ADD013C5518234485
S31508001F6012F8014BAA4203F8014FF9D175680D44DE
S31508001F70756070BC7047002070BC704700207047C1
S31508001F8038B58469636833B12268013B511C84E81B
S31508001F900A00107838BDE3680546984728B92B68C3
S31508001FA0192228465A611B6898476368ECE700BF00
S31508001FB003682DE9F04F064689B09F6EFFF7E0FFEC
S31508001FC004463046FFF7DCFF002F00EB0420D4BFA1
S31508001FD04FF0000B4FF0010B841E14F049FB002F45
S31508001FE080460EDDD6F8B431FE2B67D0E03B0125DE
S31508001FF0374A6946032003930494009502920DF02C
S31508002000F5F80025DFF8CCA0A946013C15D43046E2
S31508002010FFF7B6FF002FF8DD0D2829D00A2837D09C
S315080020205C283AD0A0F120035E2B3ED8013C08F884
S315080020300500814605F10105E9D57DB1BBF1000F23
S315080020400CD000240122234B69460520CDF80C80CC
S3150800205008F80540009202930DF0C8F8C8202DF044
S31508002060ADFD404614F036FB012009B0BDE8F08FFF
S315080020700023012281466946052008F80530CDF877
S3150800208008A01D46CDF80C8000920DF0AFF8BCE70D
S31508002090B9F10D0FECD18146B7E76B1C08F80500BE
S315080020A08146023508F80300AFE702460A4908EBFD
S315080020B005000435914603F0A1FFA6E70122074B68
S315080020C0694603200394009202930DF08FF898E76F
S315080020D09C5B0308645C0408B05B0308845B030824
S315080020E000B58BB0054601A82EF0B6FC0122074BB9
S315080020F002A9019C032002920493059506940DF00B
S3150800210075F82DF07BFB0BB05DF804FBB85B030894
S3150800211000B58BB001A82EF09FFC0122064B02A940
S31508002120019C03200292049305940DF05FF82DF0AC
S3150800213065FB0BB05DF804FBCC5B0308002A07DDE2
S315080021400139024410F8013B904201F8013FF9D1E8
S31508002150704700BFF0B50B4C03460025DFF838E0A2
S31508002160A26020462160084F084E0949094A656061
S31508002170DC61C3F808E0DF601E6159619A611D6081
S31508002180F0BD00BFC0070020F11E0008291F000887
S31508002190451F00087D1F0008D51E00082DE9F041DF
S315080021A0ADF5247D414B424D044609A88846EB60AF
S315080021B0174619F04FFD4FF4F4722A905A212AA8AF
S315080021C04FF47A7615F0C0FC3A4A40F214432AA82E
S315080021D02792FE21384A2993289618F011FC2AA836
S315080021E0354AEC2118F00CFC2046344907F062FF0A
S315080021F0064600284AD001462AA816F03BF80121CF
S315080022002AA815F0E9FD2AA81BF000FF2C4A2D4B39
S3150800221004462A6205F110012B4A2AA8EB6100231D
S315080022206A622A4AED62AA62294AE160AA616B607B
S315080022302B61C5F80080AF6015F0A6FE236821461D
S315080022402AA89847479A4D9B9A420DD962692AA8A7
S31508002250216915F0E3FE6368024621462AA89847D5
S315080022604D9A479B9A42F1D3A36821462AA89847D4
S315080022702AA815F0F9FD2AA815F0BCFC304607F087
S315080022808BFF68680DF5247DBDE8F081ED680122B5
S31508002290104B01A9032004950594019203930CF0B1
S315080022A0A5FF30460DF5247DBDE8F081E05B030807
S315080022B0C0070020805B0308B11F0008D05A030836
S315080022C0291F0008F11E0008451F00087D1F000889
S315080022D0D51E0008E85B0308A8B12DE9F04F8BB0BE
S315080022E0804608A80392029109AB009007AA6B4999
S315080022F008F1280004F0C2F8079B062B05D0002039
S315080023000BB0BDE8F08F0020704727220021404619
S315080023102FF06EFB0998089B3621051218221C120D
S3150800232088F8120088F8163000EB400088F8135039
S3150800233088F8174088F80A1088F81C2014F098F9CD
S31508002340089BDDF82490002B9A460493B8BF03F146
S31508002350010A4FEA6A0ABAF1000F40F39B80049B10
S3150800236009EB490BA9EB8901CDF814805A1E0BF12C
S31508002370030608F139034FF0000C09FB02F200EBE3
S315080023800B07064402EB420202F1350EC6448846A4
S31508002390B9F1000F7BDDC21C194611F8034C033254
S315080023A011F8015C033102F8044C11F8054C02F8E7
S315080023B0065C02F8054CB242EFD10EF1040203EBBB
S315080023C00B0112F8034C0333033203F8044C12F8DA
S315080023D0044C03F8064C12F8054C03F8054C8B42DE
S315080023E0EFD1BBF1000F07DD7246034613F8014B28
S315080023F09F4202F8014FF9D10CF1010CC6440B4675
S31508002400E245C5D1DDF81480049BDB072ED50AFB0F
S3150800241009FAB9F1000F0AEB4A0A0AF1360308EB82
S31508002420030216DD09F10106C31CD11C06EB46069C
S31508002430064411F8034C033311F8015C033103F821
S31508002440044C11F8054C03F8065C03F8054C9E424B
S31508002450EFD109EB4904002C08DD013A0444034690
S3150800246013F8011B9C4202F8011FF9D114F032F946
S31508002470049A029B09FB02F0C3F8009000EB4000A7
S31508002480039B363019460A600BB0BDE8F08F03EBA4
S315080024900B01A6E74FF0000AB6E700BFFC5B03088E
S315080024A000B589B00122064B0491694603900520C0
S315080024B0009202930CF09AFE09B05DF804FB00BF87
S315080024C0205C0308F0B50C46076889B008468E8F6D
S315080024D029F01EFF636901223C696946064D1B1BEC
S315080024E00490032003960593029500920CF07EFE55
S315080024F0002009B0F0BD00BF3C5C030883682DE9E5
S31508002500F04F04468DB016460568002B3FD02B6861
S31508002510990631D441F20829F38806F1080AB1442C
S3150800252053B39846454EDFF81CB141F288376369C4
S31508002530B34238DDA368012B22D0012203AB0097F2
S31508002540032110462DF0F4FE03460028EFD02A6832
S31508002550D206ECD43A4A012604A903200793069228
S3150800256004960CF043FE2B686FF00042A96943F00D
S315080025702003E9612B60E26100200DB0BDE8F08F11
S31508002580636820469847A3680133A360D5E7928815
S31508002590336841684262B3FBF2F303628847A36873
S315080025A00133A360B3E75AF8047B2EF085FAE36893
S315080025B007F58057AA68581C07F31C07E0607913CB
S315080025C07F15D154E368AA68591CE160D754E368BB
S315080025D05B4502D9A3F50023E3606269A369616AD2
S315080025E00232023302296261A36105D02EF082FA13
S315080025F0B8F1010899D1BFE7D9F8003009F1040903
S31508002600E26803F58053A968501C03F31C03E060D5
S3150800261058135B158854E268A968501CE0608B540F
S31508002620E3685B4502D9A3F50023E3606269A36901
S31508002630023202336261A361D8E700BFFCFF0700DC
S315080026406C5C0308FFFF0700F0B5046889B0E2690F
S31508002650A3699A4202D3102009B0F0BD23689B06ED
S31508002660F9D48E690D4646B122693046636A114629
S3150800267013449A1B6262FFF761FD606A01212669AD
S31508002680C0F58032636930440F4603F0B3F9E36955
S31508002690626A064605936946274B05200396049207
S315080026A0009702930CF0A2FD0EBB636AC3F5803255
S315080026B0072A34D90022114600E0636AB3F5803F41
S315080026C0184606D2206910440132082AC154F4D1AA
S315080026D0606A024621696062284629F0E1FDA2691E
S315080026E0E369A2F5806199420DD80020B4E7626AD1
S315080026F0284621693244626229F0D2FDE369002046
S315080027001E44E661A8E701250C4C6946032003939D
S315080027100492009502940CF069FD10209CE70822AB
S31508002720074E6946032003930097029604920CF01D
S315080027305DFD636ABEE700BF845C0308E45C0308CA
S31508002740B85C0308F8B52D4D4FF6FB7C069C4FF692
S31508002750FC7E2E68013C7569C4EB8434376965458F
S3150800276088BF7546934201EB840100EB070435D216
S315080027707B19B3F5002F1FD2BDB30023221F0433E4
S3150800278052F8040F9D4241F8040BF8D84FF6FB7235
S31508002790934208D800244FF6FB705B1A41F8044BA5
S315080027A0CA188242FAD932694FF6FC7073692A440C
S315080027B05D1B32617561F8BDD7F5002717D0221F5A
S315080027C00023043352F8044F9F4241F8044BF8D8CB
S315080027D000229D423261D9D90446CFE7724608469F
S315080027E000212FF005F90020F8BD2B46D2E7376106
S315080027F0002DFAD004463B46C0E700BFF00700208C
S315080028000D4B70B51C6882B0A4B1E2694FF6FC7531
S31508002810236801261544A269D96898682B46E5619C
S315080028200096FFF78FFF3146304602B0BDE870408C
S315080028302DF082BC02B070BDF00700200D4B70B5BC
S315080028401C6882B0A4B1E2694FF6FC7523680226BB
S315080028501544A269D96898682B46E5610096FFF782
S3150800286071FF3146012002B0BDE870402DF064BC0E
S3150800287002B070BDF00700202DE9F04788B0044685
S315080028801E464FF0010ABDF840708946314B0520B7
S3150800289069469046039204960597CDF800A00293E0
S315080028A00CF0A4FC002C4BD00022314620461546DD
S315080028B013F05EFB27FA0AF280234FF4007C4FF4EC
S315080028C0005E4FF480306764A2644FF480270422C8
S315080028D0A3634FF4702329462266C4F840C0C4F89F
S315080028E014E0E0642046676563662662C4F81CA0A7
S315080028F0A560A5616563E563E5602565A565E5658C
S31508002900154F13F0A1FB2946204613F0B1F97A6852
S315080029105AB11249334614683420424631F8191020
S31508002920A047002008B0BDE8F0870D4C3420A36806
S31508002930984748F69413984205D06FF00400F1E7DB
S315080029406FF01000EEE7E36A342098477C60224671
S31508002950DFE700BF145D0308F0070020085C0308E2
S315080029609C00002050B3F8B51E46164B0446154683
S315080029705B6892B234200F46DB689847D8B9124B89
S31508002980012EC4F8E03012D0C4F8E400B5F5003FD3
S315080029904FF0000339462046C4F8F03034BFC5F37B
S315080029A04F024FF6FF7213F095FC0020F8BD074B57
S315080029B0C4F8E430EAE76FF02800F8BD6FF01000BD
S315080029C0704700BFF00700203D28000801280008CE
S315080029D038B5084B054634205B681B69984730B9FB
S315080029E004462846214613F015FD204638BD6FF0EB
S315080029F0280038BDF007002038B5084B05463420B6
S31508002A005B685B69984730B904462846214613F047
S31508002A1019FD204638BD6FF0280038BDF0070020A4
S31508002A20E8B138B505460C46002113F02FFD002104
S31508002A30284613F02BF90B4B0B4A342003EB84037F
S31508002A40526819699369984730B904B138BD0120AD
S31508002A502DF0B4F8204638BD6FF02800F6E76FF081
S31508002A6010007047085C0308F007002070B582B0B4
S31508002A70194C13F039F9194B05464FF400204FF459
S31508002A808046C5F8DC30E56013F0F2FD2061144895
S31508002A9013F0EEFD2022606145F22263009228467B
S31508002AA032220121FFF7E8FE3246606900212EF046
S31508002AB09FFF324661690023E068FFF753FF4FF432
S31508002AC07A702DF07BF8E0680021FFF7A9FF04F182
S31508002AD0080002B070BD00BFF0070020A12400085E
S31508002AE0F8FF01002DE9F04FDFF85492002705683A
S31508002AF004464E468DB0876001226B69242146F84C
S31508002B00340B3046E7602761E761012702F072FF60
S31508002B10D9F84430894A04A90790052009960893EC
S31508002B20049706920CF062FBD9F84410102900F2BB
S31508002B30FD80834E01226B69082106F1580002F0D8
S31508002B4059FF804BD9F858209A420CD06B6901225C
S31508002B50F16DA86802F04EFF06F158006B69012274
S31508002B60082102F047FFB9F84A300126D9F838207B
S31508002B7004A908930520B9F8563007920A93D9F89C
S31508002B804C20714B0992049606930CF02FFBD9F84A
S31508002B90503004A9B9F85420052008936B4B0496C5
S31508002BA0079206930CF022FBD9F85C2004A9684B1F
S31508002BB005200496079206930CF018FBB9F85430D2
S31508002BC02046D9F84C20F3402968B2FBF3F231438A
S31508002BD0D9F85C60296022626362A66163689847D7
S31508002BE0A368A2690133B2F5002FA36000F29680AC
S31508002BF0584BEA619A4200F29480A9690023296237
S31508002C00AB626B6901210126A86802F0F3FEAF6882
S31508002C10E9684FF00008E36941F2883AA269E06082
S31508002C206061384600960226FFF78CFDE369A269C3
S31508002C30E968A8680096FFF785FD63682046DFF80F
S31508002C401CB19847A3680133A360E7690122A66906
S31508002C5003AB03211046B74212D2CDF800A02DF0DF
S31508002C6067FB8046A0B12B68DB06EED401223A4BFF
S31508002C7004A90320CDF81C80049206930CF0B6FA3A
S31508002C8000234046C9F800302B600DB0BDE8F08F30
S31508002C90EB69AE69F21A002AD7DDD4F814C0E068E9
S31508002CA0CCF50026C0F5002E9642A8BF1646821916
S31508002CB037465A451AD9BEF1000F72464FF0010140
S31508002CC009DDAF686B69384402F094FED4F814C085
S31508002CD08646EB69E068A0F500200EEB0C0273440B
S31508002CE0CEEB060770446261E060EB61AE683A4677
S31508002CF06B690121304402F07DFEE368064661698E
S31508002D0020469A193144EE6963683744E260616186
S31508002D10EF619847A3680133A36096E74FF4002252
S31508002D20EA610C4901232962AB626AE73A4610391F
S31508002D306B69A86802F05EFEFBE600BF405D03080B
S31508002D40F0070020646174615C5D03089C5D0308FC
S31508002D50C05D0308F8FF0100D45D0308FFFF070004
S31508002D602DE9F0430446DFF8E0809BB04FF480304D
S31508002D7025680026C8F8004013F07AFC2E4A012779
S31508002D802E4B0DA92A62AA69286105206E62EE619A
S31508002D90AF6210920F930D970CF028FA2A68334603
S31508002DA0DFF8A8C02146DFF8A8E03A43A6600DA8D8
S31508002DB0E66026616661A661E6612A60CDF808C00C
S31508002DC0CDF804E01E4A0396009625F061FF3146C9
S31508002DD00DA81C4E25F078FF81460DA825F072FF38
S31508002DE0AA69EB6905A9052008920993059707962C
S31508002DF00CF0FCF9E269A3699A420CD24FF47A7690
S31508002E00012205AB0096032110462DF091FAE269DE
S31508002E10A3699A42F4D3286913F05CFC0023B9F13C
S31508002E20000FC8F800300CBF18466FF028002B605A
S31508002E301BB0BDE8F08300BFF8FF0100E85D03089A
S31508002E4049260008FC5D0308F0070020C524000891
S31508002E50FD240008012803DD4A68024B12781A701F
S31508002E600020704750080020012870B538DD4D68ED
S31508002E702A78A2F13003092B55D8002404EB8403E1
S31508002E8002EB430315F8012FA2F13006A3F1300433
S31508002E90092EF3D902281FD08868A3F131020178D8
S31508002EA0A1F13003092B32D8002303EB830301EB8E
S31508002EB0430310F8011FA1F13005303B092DF4D961
S31508002EC0072A0DD82BB301221D4D631E02FA03F300
S31508002ED02A681A432A6004E0A3F13102072A18D99E
S31508002EE0174D18480024012602F0A2FD06FA04F33D
S31508002EF02A6801341448134208BF144803F064F8DA
S31508002F00082CF3D10A2002F0ADFD002070BD072A77
S31508002F10E6D801220A4D631E02FA03F32A6822EA5A
S31508002F2003022A60DDE70228DAD088680178A1F171
S31508002F303003092BD4D84FF0FF320024B4E700BF82
S31508002F409C2F0120D45E0308F85E0308005F03087F
S31508002F50022851DD486838B50278A2F13003092BFA
S31508002F6040D8002505EB850302EB430310F8012F33
S31508002F70A2F13004A3F13005092CF3D98968A3F12D
S31508002F8031020B78A3F1300009281CD8002404EB81
S31508002F90840403EB440411F8013FA3F13000303CEC
S31508002FA00928F4D9032A01D9002038BD0EF074FA8D
S31508002FB06CB1134A6B1E32F81330184380B20EF008
S31508002FC073FA002038BD032AEED80EF065FA0C4ACB
S31508002FD06B1E32F8133020EA030080B20EF064FA52
S31508002FE0002038BD89680B78A3F13002092ADBD89E
S31508002FF04FF0FF320025C9E74FF0FF30704700BF9A
S315080030001C5E0308014802F0F1B800BF1400002056
S31508003010024B002218781A7040B2704750080020F8
S315080030202DE9F04F85B01F464FF0000E0DF104084C
S31508003030DDF83C90109EC4460EF10104B0FBF1F594
S315080030400A2C01FB150E28468CBF00230123002DF0
S3150800305012F80EB02546A64608BF00230CF801BB99
S31508003060002BE9D10E9B13F1000B18BF4FF0010B93
S315080030701FB1BBF1000F00D0013FB9F1000F02D01C
S31508003080BBF1000F1FD1A7420BD9B9F1000F14BF2E
S315080030904FF0300A4FF0200A01355046B047AF428C
S315080030A0FAD1B9F1000F02D1BBF1000F08D144449F
S315080030B014F8010DB047A045FAD105B0BDE8F08F68
S315080030C02D20B047F3E72D20B047DCE7F0B50446DE
S315080030D085B00D461646207830B1252806D001342D
S315080030E0B04720780028F8D105B0F0BD60783028C0
S315080030F044D002340021A0F13003092B4FF000031D
S315080031000AD803EB830300EB430314F8010BA0F181
S315080031103002303B092AF4D96C281ED0642820D006
S315080031200BD825283DD02DD958282FD06328D2D1A1
S315080031302F1D2878B0473D46CDE7732833D04BD9A5
S3150800314075283CD10022286801910A21009204358D
S315080031500296284AFFF764FFBDE720780134642801
S31508003160DED128680435002839DB00220191029651
S315080031700A2100921F4AFFF753FFACE7A078012106
S315080031800334B8E70028A6D1013CA4E70022286842
S3150800319001911021009204350296174AFFF740FF65
S315080031A099E7B04797E72F6804353878013700283C
S315080031B091D0B04717F8010B0028FAD18BE7782889
S315080031C089D10022286801911021009204350296BF
S315080031D00A4AFFF725FF7EE77028F2D07BE701222F
S315080031E001910296404200920A21024AFFF718FF0F
S315080031F071E700BF145F0308345F0308205F030804
S315080032000368012B08D0022B05D10A4600F10801F4
S315080032100448FFF75BBF70470A4600F10C01806857
S31508003220FFF754BF485F030810B582B00C4602A9E1
S31508003230224641F8040D0348FFF748FF0A20A04735
S3150800324002B010BD685F03080EB4F0B58AB001225B
S315080032500FAB1446029253F8041B1D4601930B78D4
S315080032600491052C8CBF00220122002B08BF0022E6
S315080032709AB3252B4B7801D00131F2E78A1CA3F1CA
S315080032803001092905D812F8013BA3F130010929B3
S31508003290F9D96C2B0BD0642B31D026D8582B2ED0CD
S315080032A0632B0FD0002B3DD013781146D9E713783E
S315080032B0511C642B24D02ED9732B02D036D8702BF0
S315080032C02ED10A460AAB2968043503EB8403013478
S315080032D043F8181C11461378C3E702A90BF086FFBA
S315080032E00AB0BDE8F04003B07047732BEAD002D8A5
S315080032F0702BE7D0D8E7752B01D0782BD4D111469F
S315080033000AAB2E68621C043503EB84070B78144657
S3150800331047F8186CA5E7582BF2D0632BD1D053B1D8
S3150800332053789EE712F8013C511E9AE7752BE7D0B1
S31508003330782BE5D0F4E70A46F6E700BF2DE9F04713
S3150800334088B082460F469046109C99460A4E01253B
S315080033502046241200F012F8694603905046CDF82C
S3150800336014900494CDF818800797029600950BF0F0
S315080033703DFF08B0BDE8F087805F03083A30C0B269
S315080033803A2803D8024B53F8200070470148704783
S31508003390B05F03089C6003081D4AF8B51368064623
S315080033A01C4D0F4643F0006313602B6823F08053CF
S315080033B02B602B6898000AD5174C01E0013C24D0F5
S315080033C04FF47A702BF0DCFB2B689A00F6D4134B7B
S315080033D0104D186800F0FE4040EA074040EA8610A3
S315080033E018602B6843F080532B602B6899000AD429
S315080033F0094C01E0013C08D04FF47A702BF0C0FB71
S315080034002B689B00F6D50020F8BD6FF03100F8BD9B
S315080034109038024000380240A186010088380240F0
S3150800342070B5884D82B02B6823F480232B602B68F7
S3150800343023F480332B602B6898030BD5824C02E06B
S31508003440013C00F0BB804FF47A702BF099FB2B6897
S315080034509A03F5D47B4D2B6823F480332B602B68B5
S3150800346023F480232B602B6843F480332B602B686E
S3150800347099030BD4744C02E0013C00F09F804FF492
S315080034807A702BF07DFB2B689E03F5D56D4D2B6866
S3150800349023F080732B602B689B010BD56B4C02E0E5
S315080034A0013C00F08B804FF47A702BF069FB2B6897
S315080034B09901F5D4634D664B664A1A602B6843F04A
S315080034C080732B602B6898010AD4604C01E0013C9C
S315080034D074D04FF47A702BF053FB2B689B01F6D50A
S315080034E05D4B5E491A685E4D42F080521A601B6851
S315080034F003F080530193019B0B6843F480330B6000
S315080035002B68DA030AD4574C01E0013C56D04FF435
S315080035107A702BF035FB2B68DE03F6D54F4A504DF3
S31508003520136843F4003313602B6813F4003340F038
S3150800353082801C464B4E01E0B4423FD04FF47A706D
S3150800354001342BF01DFB2B689803F5D50121C0200B
S31508003550FFF722FF444A136803F00F03062B31D8FE
S31508003560136823F00F0343F007031360136803F08F
S315080035700F03072B00D0FEE73C4B32491A6822F0AE
S31508003580F0021A600A68910157D51A6822F00302F8
S3150800359042F002021A601A6802F00C02082A3AD0AF
S315080035A01D46294E4FF47A7001342BF0E9FA2B6840
S315080035B003F00C03082B2ED0B442F3D16FF0310080
S315080035C002B070BD294B1F491A6822F0F0021A6032
S315080035D00A68920131D51A6802F00C02082A0ED040
S315080035E01D46194E01E0B442E8D04FF47A70013412
S315080035F02BF0C6FA2B6803F00C03082BF3D11A4AF2
S31508003600136823F00F0343F007031360136803F0EE
S315080036100F03072B11D1154A0020136823F4E05332
S3150800362043F4A0531360136823F4604343F4004340
S31508003630136002B070BD002488E76FF0040002B082
S3150800364070BD00BF00380240414B4C00A186010006
S3150800365004380240196C4029403802400070004086
S315080036600470004041420F00003C02400838024006
S31508003670534B002253481968DFF89CC141F00101F9
S31508003680F0B5514E0525196083B0326019684F4C64
S3150800369008404F4F4F49186027601C684E4824F46D
S315080036A08024DFF878E14D4F1C6072600B684C4C43
S315080036B023F480334B4E0B60036823F00103036049
S315080036C0CEF80020C7F800C0266005600B6843F4F2
S315080036D080330B60BFF34F8FBFF36F8F424B1039A8
S315080036E01A600B6843F400330B60BFF34F8FBFF3C8
S315080036F06F8F3E4B0A671D68C5F3C90705F00706B5
S31508003700C5F34E35B7FA87F0043600F01F00BFF34D
S315080037104F8F04F5E07405FA06F13B4603FA00F20A
S31508003720013B0A4322605A1CF8D115F1FF35F2D243
S31508003730BFF34F8F2E4A136843F480331360BFF3E9
S315080037404F8FBFF36F8F2B494FF6FF022A4B00208E
S315080037500C68224013430B60FFF762FE08B903B0FA
S31508003760F0BD264B0022264F022501921968254EE8
S3150800377041F480712448254A19601B68244C01933A
S31508003780019B3B6823F00C0343F004033B6033685A
S3150800379043F00C033360036823F0020303601368E5
S315080037A023F00C0343F004031360256019482BF03B
S315080037B0E7F94FF40033174823602BF0E1F9F4E7F3
S315080037C000380240FFFFF6FE08380240043802407F
S315080037D01030002424ED00E094ED00E09CED00E0BC
S315080037E0A0ED00E02300020350EF00E080ED00E0CA
S315080037F014ED00E00CED00E00003FA053038024055
S315080038000020024008200240042002400C2002400A
S315080038101820024000C2EB0B0000012098ED00E0E2
S3150800382038B540B20D462BF009FA20201C242BF09F
S3150800383005FA45FA04F3043C03F00F03092B03F1D8
S315080038403000C8BF03F137002BF0F8F9231DF0D17B
S315080038500A20BDE838402BF0F1B900BF084A00211C
S31508003860084B02F1880030B402F1180502F10C0485
S3150800387058611C61D960D96183E8240030BC70475F
S315080038805C610308E82E012001382DE9F04FDFF8C6
S315080038903C924FEA00188BB009EB080559F8080066
S315080038A06B68064600901A6AE868A9600190996CE8
S315080038B0002A00F0D980002900F0D68034684FF03D
S315080038C0FF302062206820F001002060B06830B91F
S315080038D07B4F386800F0020040F0010038601F682E
S315080038E04FF00F0B5E683868DFF8E4E13043386064
S315080038F09F68DE683868304338609F681E69386894
S315080039003043386010689F6A0740D86A38431060A9
S3150800391090681F6B0740586B3843906050689F6BE0
S315080039200740D86B38435060D0681F6C0740586C06
S315080039303843D06008681F6D0740586D38430860E3
S3150800394088689F6D0740D86D3843886048681F6E41
S315080039500740586E38434860D0689F6E0740D86E57
S315080039603843D06093F824001F7F4FEAD00C00F04C
S3150800397007000CF1080C800052F82C600BFA00FACC
S3150800398007FA00F026EA0A0A4AEA000042F82C007A
S3150800399093F84C701A7FF80807F0070308309B0065
S315080039A051F820700BFA03FC02FA03F3009A27EA8F
S315080039B00C073B4341F82030636823F440536360A7
S315080039C0236803EA0E0E4EF00C032360A36823F463
S315080039D03063A3603A4B92681B68D34003F0030335
S315080039E0022B59D0032B5CD0012B57D00A2A40F260
S315080039F0A93318BF4FF4EA73E360A246636823F459
S31508003A0090436360A36823F02A03A360236843F006
S31508003A1001034AF81C3BE36903F4C003B3F5C00F7E
S31508003A2011D06FF07E47009E01E0013F3BD04FF476
S31508003A307A702BF0A5F8DAF8003003F4C003B3F572
S31508003A40C00FF2D1009623680122C84443F480735C
S31508003A502360A3681343A360236843F0200323600D
S31508003A60019BC8F80C201BB128460BB0BDE8F08FA7
S31508003A70009B58682DF044F90028F5D00226114C11
S31508003A804FF4CB72104B019802A902960494059242
S31508003A9006930BF0ABFBE7E78A23ADE740F25373D7
S31508003AA0AAE70023A8E72368284623F4D0732360EF
S31508003AB0A36823F00103A3600BB0BDE8F08F00BF35
S31508003AC0903802405462030884620308E82E0120F5
S31508003AD0F369FFEF38B5C36804461BB10368586835
S31508003AE02DF0AEF823684FF0FF30616800221B689E
S31508003AF01862186820F0010018601A605A609A6007
S31508003B004D6988692B68184328608869496923EADA
S31508003B1000030B60E26038BD0138F8B5304D04018A
S31508003B202B592E461A6810689168D369DF0727D57E
S31508003B30CF0725D502F1200E4FF0010C13F0020F26
S31508003B407746C2F820C03CD04FF0020E13F0040F9F
S31508003B50C7F800E022D11F0701D5CF072CD480066D
S31508003B6005D5990603D52B1998680BF0EFFE33593E
S31508003B701B681A68DB69120617D51B0616D4F8BD2A
S31508003B809F0704D5CF0720D45F07E8D4E3E75F078C
S31508003B90E1D5C907E3D502F1200E774604223A603B
S31508003BA01A07DCD508223A60D9E7F8BD2C44A06884
S31508003BB0BDE8F8400BF094BE02F1200708223A60EF
S31508003BC0CDE75F07C7D57746E8E702F120074FF04C
S31508003BD0020E13F0040FC7F800E0DFD1BBE700BF01
S31508003BE0E82E012003681B681868DA6910F080005F
S31508003BF004D012F0800001D001209962704700BFFE
S31508003C0003681B6818689968DA6970B4D50718D507
S31508003C10CC0716D5012603F120051E6296072C4609
S31508003C202DD502252560550719D4150701D5CC07CA
S31508003C3020D4810601D5960618D44FF0FF3070BC03
S31508003C407047940704D5CE071DD45507F1D4ECE781
S31508003C505407EAD5C907ECD503F120052C460421FB
S31508003C6016072160E5D508212160E2E7586A70BC8D
S31508003C70C0B2704703F1200408212160D9E7540730
S31508003C80D3D52C46EBE7022503F12004256055071A
S31508003C90E5D4CAE7036801291B6807D0022904D1BD
S31508003CA01A6842F020021A60704770471A6842F094
S31508003CB080021A60704700BF036801291B6807D095
S31508003CC0022904D11A6822F020021A607047704748
S31508003CD01A6822F080021A60704700BF01390B4B40
S31508003CE001EB410153F8213003F11C029862136875
S31508003CF01B06FCD582B040F62C230193019B5A1E65
S31508003D000192002BFAD102B0704700BF5C6103082C
S31508003D102DE9F04F441E6E4E002504EB4402E000E8
S31508003D209200011BB358324406EB0111D3F800C0C8
S31508003D30CF6A2CF0010CD1F83080D2F808E0C3F82D
S31508003D4000C01D605D609D603D688A6B48EA050C91
S31508003D5025EA0805096EC7F800C03D60BEF1000FE8
S31508003D6006D15C4F3D6805F0020545F001053D604A
S31508003D70001B594CDFF85CC106EB0010D0F8189010
S31508003D80C669D9F80070D0F820803E43476A056CAA
S31508003D90C9F80060D8F800603743866AC8F800702A
S31508003DA0D8F800703E43476CC8F80060166806EA03
S31508003DB00508856C48EA07071760976807EA050645
S31508003DC0C56C476D2E43056D966056682E40856D09
S31508003DD03743C66E5760D7682F40C56D2F43856E2B
S31508003DE0D7600F682F403E430E608E68476F056F99
S31508003DF02E40856F37438F604E6890F83C7006EA10
S31508003E000508C56F48EA0506D0F880504FEAD70876
S31508003E1007F007074E60D66808F10808BF0006EAEB
S31508003E200509D0F8845049EA05060F2590F86490EC
S31508003E30D66005FA07FA52F828B090F834604FEAC7
S31508003E40D9002BEA0A0A09F0070906FA07F7083023
S31508003E504FEA89094AEA070742F8287005FA09F776
S31508003E6051F8205006FA09F225EA0705154341F8E4
S31508003E7020505A6822F440525A601A68144044F096
S31508003E800C041C609A6822F430629A60DCF8002000
S31508003E9022FA0EF202F00302022A16D0032A12D0E0
S31508003EA0012A0DD0BEF10A0F40F2A93218BF4FF40D
S31508003EB0EA72DA601A6842F001021A60BDE8F08F09
S31508003EC040F25372F5E70022F3E78A22F1E700BFD2
S31508003ED05C61030890380240F369FFEFEFF314833F
S31508003EE09B0724D470B5234C2368002B3ED10028A9
S31508003EF039DD214B1B68984235DC0138EFF3118315
S31508003F005A1E0F2A02D9102282F311881B4D012648
S31508003F102B6026601A4B03EB40131A7B52B96FF0DD
S31508003F202800002323602B6883F3118870BD6FF087
S31508003F3018007047D1070BD402F0040101F0FF0006
S31508003F4011B16FF02A00ECE742F004021A73E8E7B1
S31508003F50042218461A732BF05FF80028E1D0094BA3
S31508003F6000201E60DDE76FF0110070BD6FF01800CD
S31508003F7070BD00BF3032012054B504082C32012030
S31508003F803C31012038320120F0B5EFF314839B074A
S31508003F9002D46FF01800F0BD314B1A68002AF8D128
S31508003FA0002847DD2F4A126890422EDC01382E4A37
S31508003FB002EB4010EFF31182541E0F2C02D9102485
S31508003FC084F31188294D01262A601E600022846820
S31508003FD04A60427B276902EB060E62698F614A6175
S31508003FE0C1F808E0027BD70712D5214A1268904229
S31508003FF031D002220A60C269CA6082690A61002059
S3150800400018602B6883F31188F0BD6FF01100F0BDBE
S31508004010960713D554074CBF0C24042412F07802D3
S315080040200C6015D0082A18D0102A0CBF202240226E
S315080040304A60E0E7E9D10E4A1068BBE7520702D5A5
S3150800404008220A60D7E7A4681022CC600A60D4E781
S3150800405002224A60CFE70E60CDE701224A60CAE72E
S315080040603032012054B504083C3101202C3201209D
S31508004070C8320120084A0949936C0968072B94BF7E
S3150800408002EBC30302F1400301B17047586891641B
S3150800409002305860704700BF5408002034320120AF
S315080040A070B42049204B214C0D681B68246803EB2B
S315080040B083020E681E4B61014FEA4202A3EB050319
S315080040C029D51B491546891B8B4224D8194C03EB65
S315080040D08303194AA16CC3F35913E66C0729A2FB9B
S315080040E0032394BF04EBC10104F1400105EB53130C
S315080040F0104D4A68921B1A444A6078B10F4AE36425
S31508004100801A4011013055F83020A864013245F86C
S31508004110302070BC7047A2F10A05D7E7A864E364AB
S3150800412070BC704718E000E0D832012004ED00E0CA
S31508004130C04B030054080020DD606D023C310120AD
S315080041402DE9F84F074604302CF02EFBEFF31183C8
S315080041505A1E0F2A02D9102282F31188DFF89C9082
S315080041600122DFF89CA0C9F80030CAF80020214ACD
S31508004170214E1268316D7B68002A396033652DDB64
S3150800418000239046394632469E460FE003C89C46B1
S3150800419085E80300013346F804E02946C2F804E03E
S315080041A0984502F108021BDB082B19DCDC00052BFD
S315080041B001F108054FF0050C06EB0400E6DD386949
S315080041C001F1080556F83310DC0001EB000B5168C5
S315080041D07869C7F810B008447861DBE74FF0000C3F
S315080041E00023CAF80030D9F8003083F311886046F6
S315080041F0BDE8F88F54B50408540800202C32012075
S3150800420030320120032803D8024B03EBC000704765
S3150800421000207047A8080020244BF0B5161889B06E
S3150800422003F120055C68844203D3B44201D21F78A7
S3150800423027B908339D42F5D109B0F0BD0D461C4992
S3150800424003460E68EFF3148189071DD519490C68D2
S31508004250D4B11949022A4FF0010EA4EB01044FEA22
S31508004260641404F101041ED0042A1AD0134A6946BC
S3150800427038460396049405930695CDF800E0029215
S315080042800AF0B4FF09B0F0BD0D4A01246946384664
S31508004290039604930595009402920AF0A7FF09B0C5
S315080042A0F0BD084AE3E7084AE1E700BFA80800208E
S315080042B0D8320120C83201203C3101203C63030872
S315080042C094620308CC62030804630308244BF0B520
S315080042D0161889B003F120055C68844203D3B442FA
S315080042E001D21F7827B908339D42F5D109B0F0BD30
S315080042F00D461C4903460E68EFF3148189071DD540
S3150800430019490C68D4B11949022A4FF0010EA4EBD9
S3150800431001044FEA641404F101041ED0042A1AD0D9
S31508004320134A694638460396049405930695CDF8CC
S3150800433000E002920AF05AFF09B0F0BD0D4A0124C6
S3150800434069463846039604930595009402920AF046
S315080043504DFF09B0F0BD084AE3E7084AE1E700BFA8
S31508004360A8080020D8320120C83201203C3101209B
S315080043701C64030874630308AC630308E463030856
S3150800438010B50C4C206805280ED02BF0C9FA246805
S31508004390FEF7F4FF02462146074801F015FE6420A1
S315080043A02BF074FA002010BD044801F041FB0020F0
S315080043B010BD00BFC80800200C6A0308EC69030892
S315080043C010B50C4C206805280ED02BF001FB24688C
S315080043D0FEF7D4FF02462146074801F0F5FD6420A2
S315080043E02BF054FA002010BD044801F021FB0020F0
S315080043F010BD00BFC8080020346A0308EC6903082A
S3150800440010B50C4C206805280ED02BF087FB2468C5
S31508004410FEF7B4FF02462146074801F0D5FD6420A1
S315080044202BF034FA002010BD044801F001FB0020EF
S3150800443010BD00BFC80800205C6A0308EC690308C1
S3150800444010B50C4C206805280ED02BF003FB246809
S31508004450FEF794FF02462146074801F0B5FD6420A1
S315080044602BF014FA002010BD044801F0E1FA0020F0
S3150800447010BD00BFC8080020846A0308EC69030859
S3150800448010B50C4C206805280ED02AF0E3FF2468E6
S31508004490FEF774FF02462146074801F095FD6420A1
S315080044A02BF0F4F9002010BD044801F0C1FA0020F1
S315080044B010BD00BFC8080020AC6A0308EC690308F1
S315080044C010B50C4C206805280ED02AF025FF246864
S315080044D0FEF754FF02462146074801F075FD6420A1
S315080044E02BF0D4F9002010BD044801F0A1FA0020F1
S315080044F010BD00BFC8080020D46A0308EC69030889
S31508004500F0B50138013915E011F8013F13F0DF0F56
S31508004510A3F16106A3F1200E14D02C2B12D0192E6C
S3150800452098BF5FFA8EF3192D98BFFCB29C420BD147
S31508004530012A0BD010F8014FA4F16105A4F1200758
S31508004540002CE1D10120F0BD0020F0BD1046F0BDE1
S31508004550F8B505460E4600241B4F002D30DD3168A0
S315080045600B7813BB01341837052CF6D1174B5C684A
S3150800457014B918E02468B4B1002D0EDD31680B7843
S31508004580002BF7D00022A068FFF7BAFF0028F1D069
S31508004590206901F019FD0520F8BD206901F014FD18
S315080045A02468002CE8D10020F8BD0022B868FFF77F
S315080045B0A7FF0028D6D0386901F006FD2046F8BDC9
S315080045C0386901F001FDCDE754640308C8080020E6
S315080045D02DE9F0410023184E80461D4637460360F4
S315080045E009E0082C20D07F2C1ED00A2C14D00D2CC4
S315080045F012D0012C10D0B06801F0E6F9C4B21F2C15
S31508004600EFD94F2D2046ECDC01F02CFA7B190A2C49
S3150800461005F101051C73EAD12E44002320463373A5
S31508004620C8F80050BDE8F0810448002DDDD0013DF2
S3150800463001F0CAFCD9E700BFC8080020CC6403080B
S31508004640F8B5254E0346306805283FD0012B3ADDDC
S3150800465049680C7814F0DF0F35D004F0FD032C2BD5
S3150800466031D0A4F10905B5FA85F56D0945B12AE0F9
S31508004670E3B205EB850511F8014F03EB45058CB14F
S31508004680A4F13003A4F14102DBB2092BF1D9A4F15C
S315080046905703192AA4F16107A4F13704DBB2E7D955
S315080046A0192FE6D929462AF04DFF3468FEF766FE2B
S315080046B02A4603462146094801F086FC64202BF069
S315080046C0E5F80020F8BD4FF0FF30F8BD044801F0CA
S315080046D0AFF90020F8BD00BFC8080020FC6A03082F
S315080046E0EC6903080128F8B557DD4D682A7812F0F9
S315080046F0DF0F52D002F0FD032C2B4ED0A2F1090495
S31508004700B4FA84F4640944B147E0D3B204EB8404F0
S3150800471015F8012F03EB44048AB1A2F13003A2F184
S315080047204106DBB2092BF1D9A2F15703192EA2F1E2
S315080047306107A2F13702DBB2E7D9192FE6D90228B9
S315080047402C4D2EDD8868017811F0DF0F29D001F095
S31508004750FD032C2B25D0A1F10902B2FA82F25209E7
S3150800476042B11EE0CBB202EB820210F8011F03EB46
S315080047704202B9B1A1F13003A1F14106DBB2092B1E
S31508004780F1D9A1F15703192EA1F16107A1F137015A
S31508004790DBB2E7D9192FE6D904E0164D02282C6EAC
S315080047A0D0DC6A6E072C20D8072A20462C661FD82C
S315080047B011466A6601230131013003FA01F103FA51
S315080047C000F0013901380AF0C3FD6A6E2B6E0A49FA
S315080047D002EB420203EB4303084801EB820201EBBA
S315080047E0830101F0F1FB0020F8BD072A286EDFD906
S315080047F0696EDFE7C8080020D0640308286B030841
S315080048000128F0B583B03FDD05464868027812F006
S31508004810DF045ED002F0FD032C2B35D0A2F109048B
S31508004820B4FA84F4640944B12EE0D3B204EB8404E8
S3150800483010F8012F03EB44048AB1A2F13003A2F168
S315080048404106DBB2092BF1D9A2F15703192EA2F1C1
S315080048506107A2F13702DBB2E7D9192FE6D920465C
S315080048600191FFF7CFFC0199002830D0022D32D1F3
S315080048700378062B94BFDBB20023032D037058DCA4
S3150800488041684160264601E0002403263E4F07E0C2
S3150800489001345B6807EB820201F096FBA64213D34C
S315080048A02046FFF7AFFC2146034668B1057837482E
S315080048B005EB4502002DEBD1214601345A683448F0
S315080048C001F082FBA642EBD2002003B0F0BD032C18
S315080048D0FAD80326DAE78F683E7816F0DF0FC7D0D6
S315080048E006F0FD032C2BC3D0A6F10903B3FA83F314
S315080048F05B094BB1BCE7F2B203EB830317F8016F10
S3150800490002EB4303002EB4D0A6F13002A6F1410E05
S31508004910D2B2092AF0D9A6F15702BEF1190FA6F1AB
S31508004920610CA6F13706D2B2E5D9BCF1190FE3D965
S315080049309FE70D692A7812F0DF0FA1D002F0FD0378
S315080049402C2B9DD0A2F10901B1FA81F1490939B19F
S3150800495096E7D3B215F8012F03EB0111002A90D080
S31508004960A2F13003A2F14106DBB2092BF2D9A2F17A
S315080049705703192EA2F16107A2F13702DBB2E8D973
S31508004980192FE7D97DE700BFD0640308486B0308F1
S31508004990606B03082DE9F043072387B0B0F10008E0
S315080049A08946059340F34A810F680024B0483D784C
S315080049B0B04E3DB90134072C00F0408156F834005A
S315080049C0002DF7D000223946FFF79AFD0028F1D0CE
S315080049D0A94B03EBC40494F8E060731E062B00F29F
S315080049E02D81DFE813F045024502DF0045027F000E
S315080049F042000700B8F1010F0FD0D9F80400027879
S31508004A0012F0DF0F09D002F0FD032C2B05D0A2F11E
S31508004A100901B1FA81F1490971B1984B984A9A602E
S31508004A20002007B0BDE8F083D3B201EB810110F88E
S31508004A30012F03EB41018AB1A2F13003A2F141042F
S31508004A40DBB2092BF1D9A2F15703192CA2F16105A2
S31508004A50A2F13702DBB2E7D9192DE6D9012940F0D0
S31508004A601082864B874A9A60DAE7B8F1010F00F0A0
S31508004A70D580D9F80400027812F0DF0F00F0CE8056
S31508004A8002F0FD032C2B00F0C980A2F10901B1FA4E
S31508004A9081F1490941B1C1E0D3B201EB810110F8B6
S31508004AA0012F03EB41018AB1A2F13003A2F14104BF
S31508004AB0DBB2092BF1D9A2F15703192CA2F1610532
S31508004AC0A2F13702DBB2E7D9192DE6D9002900F0A1
S31508004AD0A5806D4B1B6801338B4240F29F80674B64
S31508004AE019609DE7B8F1010F00F09F80D9F804100E
S31508004AF00A7812F0DF0F00F0988002F0FD032C2BE5
S31508004B0000F09380A2F10904B4FA84F4640944B16C
S31508004B108BE0D3B204EB840411F8012F03EB4404B1
S31508004B208AB1A2F13003A2F14100DBB2092BF1D917
S31508004B30A2F157031928A2F16105A2F13702DBB2E7
S31508004B40E7D9192DE6D9002C6FD0504D2968A14216
S31508004B506DD04A4E0129736F08D0994206D008468F
S31508004B600AF0D2FC0028C0F29C81736F2046474C9D
S31508004B700128286007D0984205D00AF075FC00285D
S31508004B80C0F2988120684FF4A2610AF061FE0028FD
S31508004B90C0F27E810121002302223D4801F014FA69
S31508004BA0296844E0B8F1010F2ED0D9F8040002783C
S31508004BB012F0DF0F28D002F0FD032C2B24D0A2F12F
S31508004BC00901B1FA81F1490941B11DE0D3B201EBFE
S31508004BD0810110F8012F03EB41018AB1A2F13003DC
S31508004BE0A2F14104DBB2092BF1D9A2F15703192C22
S31508004BF0A2F16105A2F13702DBB2E7D9192DE6D990
S31508004C004B1E012B40F236811C4B1C6F2146214856
S31508004C1001F0DAF9002007B0BDE8F083174B05224A
S31508004C2000201A6007B0BDE8F083184B19681A48C7
S31508004C3001F0CAF9002007B0BDE8F0830F4D95F8DA
S31508004C406860B8F1010F40F31181D9F804100A78A9
S31508004C5012F0DF0F00F00A8102F0FD032C2B00F0A2
S31508004C600581A2F10900B0FA80F04009E0B1FDE043
S31508004C70806B03083065030854640308C8080020DD
S31508004C800C2F01202C2F012054B50408082F0120D1
S31508004C9068650308E06B0308A06C0308D3B211F833
S31508004CA0012F03EB00108AB1A2F13003A2F14104EF
S31508004CB0DBB2092BF3D9A2F15703192CA2F161072C
S31508004CC0A2F13702DBB2E9D9192FE8D90AF0D0FFE9
S31508004CD0044685F8686021467B4801F075F995F821
S31508004CE06820022A66D0042A56D104A920460AF06A
S31508004CF0C1FF002800F092800499744801F064F915
S31508004D0005A8FFF765FC2A7B12F0DF0F00F0A680E6
S31508004D1002F0FD032C2B00F0A180A2F10901B1FAE3
S31508004D2081F14909002940F09980694805E0D3B224
S31508004D3010F8012F03EB01118AB1A2F13003A2F199
S31508004D404106DBB2092BF3D9A2F15703192EA2F1BA
S31508004D506107A2F13702DBB2E9D9192FE8D995F82C
S31508004D606860022E46D0042E30D106AF3246204661
S31508004D7047F8081D39460AF0C7FF32463946204625
S31508004D800AF078FF002864D00499524801F01CF90B
S31508004D9095F868301C449EE701220DF10D01204666
S31508004DA00AF068FF00283ED09DF80D104A4801F029
S31508004DB00BF9A5E70DF10E0120460AF05BFFB8B323
S31508004DC0BDF80E10454801F0FFF899E706AE012236
S31508004DD0204606F80B1D31460AF096FF3146012299
S31508004DE020460AF047FF48B39DF80D103C4801F0ED
S31508004DF0EBF8CDE706AF3246204627F80A1D3946B6
S31508004E000AF082FF3246394620460AF033FFD0B10F
S31508004E10BDF80E10334801F0D7F8B9E74FF0FF3365
S31508004E201946049369E7FF2319468DF80D30BDE747
S31508004E304FF6FF731946ADF80E30C3E7FF23194640
S31508004E408DF80D30D2E74FF6FF731946ADF80E30E0
S31508004E50E0E74FF0FF331946049396E70A2000F07F
S31508004E6001FE0020EC6607B0BDE8F083E86E2DE78A
S31508004E701D4DE6E61D480C4601F0A6F81A4B1C67C0
S31508004E80C4E602297FF4C9AD174B194A9A60C7E5EB
S31508004E90009040F29122174B03201749FEF74EFA6D
S31508004EA078E6009040F28D22144B03201249FEF753
S31508004EB045FA5AE600904FF42472114B03200E4926
S31508004EC0FEF73CFA5EE600BF886B0308986B03089A
S31508004ED0D4080020B46B0308A46B0308906B03087E
S31508004EE0BC6B0308AC6B0308C8080020C46B030836
S31508004EF04C2F0120586C0308206C0308046C030827
S31508004F003C6C03082DE9F04F0522A84F0126002521
S31508004F10A7490128A74CA1B0786787F868607D661D
S31508004F20B96020603A663A6004D00AF09DFA002813
S31508004F30C0F221819F4800F0D3FD002302220121FF
S31508004F409D4801F041F8994A984B116E01225B6E13
S31508004F508818134402FA00F002FA03F101380139FD
S31508004F600AF0F6F90028C0F20F8120684FF4A26112
S31508004F700AF06EFC0028C0F210818C4B1C68052CC8
S31508004F8000F0E98008A920462AF02EFB089B012B91
S31508004F9000F0DF80022B00F0E280042B00F0E380B3
S31508004FA0082B00F0DE80102B14BF0423052303EB27
S31508004FB083022146814803EB4202814B1A4401F0E1
S31508004FC003F83E2000F04EFD002000F055FD07A82E
S31508004FD0FFF7FEFA04900020079C7A490646034626
S31508004FE00EE0092A12D020AA02EB860210B9013671
S31508004FF042F8401C0F2E00F1010003F101030EDCFC
S315080050009C425EDD11F8012F202AEAD14FF00002FA
S315080050100F2E4FF0000003F101030A70F0DD634A1A
S315080050200A2013444FF000021A7300F01BFD109B70
S31508005030DFF8B49103931B785C4A02934B46119FA1
S31508005040B1461E46029BD2F87080BB465E483BB905
S315080050505E4B9E4240D01836029BB068002BF7D0B4
S3150800506042460399FFF74CFA0028F1D0D6F804A077
S31508005070BAF1000F79D07569EADD9BF80070002453
S3150800508003E0A24505F10805E2D00134002FF8D067
S31508005090424659462868FFF733FA0028F1D04E46AB
S315080050A06B68701E11A99847002000F0E5FC049B68
S315080050B0012B7FF462AF464800F0BAFC21B0BDE888
S315080050C0F08F3A4A0A2013444FF000021A7300F090
S315080050D0C9FC002EABD1E7E7344B4E465F46D3F802
S315080050E00490B9F1000FDFD0DDF808B0BA4605968E
S315080050F0BBF1000F07D1D9F80090B9F1000FD3D052
S31508005100BBF1000FF7D042460399D9F80800FFF71C
S31508005110F7F90028EFD0D9F80470D9F81450002F01
S31508005120E9DD9AF80060002403E0BC4205F10805B1
S31508005130E1D00134002EF8D0424651462868FFF7E0
S31508005140DFF90028F1D0059E11A96B68701E9847F3
S31508005150AAE700232BE71F4800F036FF31E70123B3
S3150800516025E7032323E7022321E733464E46DB6878
S31508005170002B96D198E7009040F22312164B032095
S315080051801649FEF7DBF8D5E600904FF49972144BF2
S3150800519003201249FEF7D2F8E7E6009040F23312F0
S315080051A0104B03200D49FEF7C9F8E6E6C8080020AB
S315080051B00C2F0120082F012068650308086D0308D5
S315080051C0FC650308D3080020BC6C0308B464030814
S315080051D0146D0308046D03083C6C0308206C03086F
S315080051E0C46C0308586C0308546403080C4B014646
S315080051F0586861B100220A6080B1884207D0036806
S315080052001BB907E01A6832B113469942FAD14FF032
S31508005210FF30704703460020196070475960704791
S31508005220C80800200B780BB1FFF76AB91846704713
S3150800523010B50B4C82B00B4BA2689A4202D00020E4
S3150800524002B010BD084B694618680AF023FB009B9C
S31508005250002BF4D0A06800F0B7FB0120F0E700BFF0
S31508005260C80800200C2F0120082F012001282DE94D
S31508005270F04F93B036DD4C68227812F0DF0332D057
S3150800528002F0FD032C2B2DD0A2F10903B3FA83F308
S315080052905B093BBB1D4607E0D3B205EB850514F851
S315080052A0012F03EB45058AB1A2F13003A2F14106AD
S315080052B0DBB2092BF1D9A2F15703192EA2F1610726
S315080052C0A2F13702DBB2E7D9192FE6D902280195F0
S315080052D040F0C38000230393019B632B98BF0023F0
S315080052E0019302E000230393019300234FF008097A
S315080052F04FF00508DFF8E4B1029304A8FEF720FF93
S31508005300029B8246F3B9059B8145029303D9C9EBF3
S315080053100003814698446A4800F056FEB9F1000F2A
S315080053200DD0012402E00134A14508D3A045FAD2E4
S3150800533021460134634800F047FEA145F6D262488B
S3150800534000F076FB019B002B43D005995F4800F0DF
S315080053503BFEBAF1000F5ADD002604AD012437469C
S3150800536007E001342A696B690835A24517441E44CB
S3150800537013DBA045F5D2A1455548F2D36B69013434
S3150800538029690835ABFB03E2D20802EB820EA3EBD0
S315080053904E0300F019FEA245EBDAABFB063239469E
S315080053A04B48D20802EB8203A6EB430300F00CFE3F
S315080053B0079B4848ABFB0321C90801EB8102A3EB15
S315080053C0420200F001FE019B93BB002013B0BDE82A
S315080053D0F08F0499404800F0F7FD05993B4800F026
S315080053E0F3FDBAF1000FB7DC019B39481A46194696
S315080053F000F0EAFD079B39493648A1FB0321C90895
S3150800540001EB8102A3EB420200F0DEFDDDE700239B
S315080054102F481A46194600F0D7FD079B2D48ABFBC7
S315080054200321C90801EB8102A3EB420200F0CCFD7F
S31508005430029B019A05981344181A02932AF026FA31
S31508005440FFF7F6FE0028C0D1039B013B03937FF4C8
S3150800545054AF002013B0BDE8F08F89680B7813F0BD
S31508005460DF022AD003F0FD022C2A3FF433AFA3F162
S315080054700902B2FA82F25209002A7FF42BAF1046CB
S3150800548007E0DAB200EB800011F8013F02EB4000BA
S315080054908BB1A3F13002A3F14104D2B2092AF1D9A2
S315080054A0A3F15702192CA3F16105A3F13703D2B270
S315080054B0E7D9192DE6D903900EE703920CE700BF4A
S315080054C0246D03084C6D0308306D0308646D0308EA
S315080054D06C6D0308806D03085C6D0308CDCCCCCCDD
S315080054E02DE9F043B0F1000889B00F4623DDD1F865
S315080054F000900024AF4899F80050AF4E35B90134F2
S31508005500062C18D056F83400002DF8D0002249464B
